:100000000C94F6040C943D050C943D050C943D05B0
:100010000C943D050C943D050C943D050C943D0558
:100020000C943D050C943D050C94D7320C94A933E7
:100030000C94062C0C943D050C943D050C943D0548
:100040000C943D050C943D050C943D050C943D0528
:100050000C943D050C94A62C0C943D050C943D0588
:100060000C943D050C943D050C943D050C943D0508
:100070000C943D050C943D050C943D050C943D05F8
:100080000C943D050C943D050C943D050C943D05E8
:100090000C943D050C943D050C943D050C943D05D8
:1000A0000C943D050C943D050C943D05CD15EB15C8
:1000B000F015F515FA15FF15041609160E16131688
:1000C00018161D16221627162C16311636163B1634
:1000D000401645164A164F16541659165E166316E4
:1000E00068166D16721677167C16811686168B1694
:1000F000901695169A16E017E317E817EF17F417FE
:10010000F917FE17031808180D18121817181D18DC
:100110001D181D181D181D181D181D181D186921E2
:1001200069219B219B21E8211C231C231C230622DF
:100130009B22AC22AC220C231C231C2315239E23C0
:100140009E23B023B023A723B023B023B0239E2344
:100150009E23AC23B023B023AC2316343D34353575
:100160003D3435358934AC343535033512352020EE
:100170002020202020005343524C4B0020202020E0
:100180002020200043415053200020202020200028
:100190004E4C434B2000556E64656600464E000091
:1001A0005B4D69676974655061645D004600470096
:1001B0004800A80000000000000049004A004B0071
:1001C00053415400550056004C004D004E005F0056
:1001D0006000610057000000000000005C005D004E
:1001E0005E00000000005200000059005A005B0051
:1001F0000000500051004F000000620063005800F2
:10020000DE5C470048002A000000000000004900B2
:100210004A004B000100C35CCA5CCA5C4C004D0044
:100220004E005F006000C75CC95C00000000000079
:100230005C005D00CC5C0000000052000000590032
:100240005A005B000000500051004F0000006200A7
:1002500063005800000101010101010101010202D6
:100260000202020202020203030303030303030464
:10027000040404040404050505050506060606062F
:10028000070707070708080808090909090A0A0AE9
:100290000B0B0B0C0C0C0D0D0D0E0E0E0F0F0F108B
:1002A0001011111112121313141415151616171715
:1002B000181819191A1A1B1B1C1D1D1E1E1F202081
:1002C000212222232424252626272829292A2B2CCB
:1002D0002D2D2E2F30313232333435363738393AEE
:1002E0003B3C3D3E3F404142434445464748494AE6
:1002F0004C4D4E4F50515354555658595A5B5D5EB4
:100300005F616264656668696B6C6D6F707273754E
:1003100077787A7B7D7E8082838587888A8C8E8FB2
:1003200091939596989A9C9EA0A2A3A5A7A9ABADE0
:10033000AFB1B3B5B7BABCBEC0C2C4C6C9CBCDCFCE
:10034000D1D4D6D8DBDDDFE2E4E7E9EBEEF0F3F57C
:10035000F8FAFDFF00AE00AF00DA02818FD9F1DBC1
:1003600040A4A62EAF00A0C000A1C800AED580A8B2
:100370001FD300408D1420000000000000003E5BF1
:100380004F5B3E003E6B4F6B3E001C3E7C3E1C00B4
:10039000183C7E3C18001C577D571C001C5E7F5E7D
:1003A0001C0000183C180000FFE7C3E7FF0000181E
:1003B00024180000FFE7DBE7FF0030483A060E0094
:1003C000262979292600407F05050700407F05255D
:1003D0003F005A3CE73C5A007F3E1C1C0800081CAA
:1003E0001C3E7F0014227F2214005F5F005F5F00CD
:1003F00006097F017F00006689956A006060606081
:10040000600094A2FFA2940008047E04080010205B
:100410007E20100008082A1C0800081C2A08080072
:100420001E10101010000C1E0C1E0C0030383E3830
:100430003000060E3E0E0600000000000000000026
:100440005F000000000700070000147F147F140005
:10045000242A7F2A1200231308646200364956209A
:100460005000000807030000001C2241000000416A
:10047000221C00002A1C7F1C2A0008083E080800D5
:100480000080703000000808080808000000606064
:1004900000002010080402003E5149453E00004281
:1004A0007F4000007249494946002141494D3300CF
:1004B0001814127F10002745454539003C4A494928
:1004C00031004121110907003649494936004649A2
:1004D00049291E0000001400000000403400000004
:1004E00000081422410014141414140000412214B2
:1004F00008000201590906003E415D594E007C1278
:1005000011127C007F49494936003E414141220099
:100510007F4141413E007F49494941007F09090926
:1005200001003E41415173007F0808087F000041EF
:100530007F4100002040413F01007F08142241001C
:100540007F40404040007F021C027F007F04081073
:100550007F003E4141413E007F09090906003E41BE
:1005600051215E007F091929460026494949320078
:1005700003017F0103003F4040403F001F20402017
:100580001F003F4038403F00631408146300030419
:10059000780403006159494D4300007F4141410007
:1005A000020408102000004141417F0004020102C2
:1005B0000400404040404000000307080000205471
:1005C000547840007F28444438003844444428008C
:1005D000384444287F0038545454180000087E09D9
:1005E000020018A4A49C78007F080404780000444A
:1005F0007D4000002040403D00007F102844000066
:1006000000417F4000007C04780478007C080404EA
:100610007800384444443800FC1824241800182476
:100620002418FC007C080404080048545454240096
:1006300004043F4424003C4040207C001C20402017
:100640001C003C4030403C004428102844004C90A2
:1006500090907C004464544C4400000836410000F3
:10066000000077000000004136080000020102048B
:1006700002003C2623263C00000000000000404011
:1006800040F0F8F8FF38FFF8F83FF8F8FF38FFF8C7
:10069000F8F040404000000000000080C0C0C08072
:1006A0000000C0C08000000080C0C000C0C00000CA
:1006B00080C0C00000000000C0C0C0C0C000C0C0FA
:1006C000000000000000000000000000000000002A
:1006D000000000000000000000000000000000001A
:1006E000000000000000000000000000000000000A
:1006F00000000000000000C0F0F8FC3E1E060100F3
:1007000000007F4141417F007F4141417F000080E7
:10071000C0E07E5B4F5BFEC00000C000DCD7DEDEC9
:10072000DED7DC00C0000000000000000000000078
:100730000000000000000000000000000000494927
:1007400049FFFFFFFFE0DFBFBF00BFBFDFE0FFFFEC
:10075000FFFF49494900000000001F3F6060E0BF03
:100760001F007F7F071E381E077F7F007F7F0E1FC1
:100770003B716000000000007F7F0C0C0C007E7E4F
:10078000007F7E0303007F7E03037E7E03037F7E64
:10079000000F3E703C063C703E0F00327B49493FE3
:1007A0007E007F7E0303001E3F69696F2600000004
:1007B00000000000000000030F1F3F3C7870600045
:1007C00000007F4141417F007F4141417F00307BFC
:1007D0007F7830202030787F3B0003000F7F0F0FA1
:1007E0000F7F0F0003000000000000000000000069
:1007F00000000000000000000000000000000101F7
:1008000001070F0F7F0F7F0F0F7E0F0F7F0F7F0FDF
:100810000F070101010000000000000000000001BE
:1008200001000000000000000000000000000000C7
:1008300000000000000000000000000000000000B8
:1008400000000000000000000000000000000000A8
:100850000000000000000000000000000000000098
:100860000000000000000000000000000000000088
:100870000000000000000000000000000000000078
:100880000000000000000000000000000000000068
:100890000000000000000000000000000000000058
:1008A0000000000000000000000000000000000048
:1008B00000000000000000000403300000001403EA
:1008C0004D00690067006900740065005000610018
:1008D00064000000140341006C00650062006C00BD
:1008E00061007A0065007200000004030904090237
:1008F0003B00020100A0FA0904000001030101000D
:100900000921110100012240000705810308000AA6
:100910000904010001030000000921110100012266
:1009200071000705820320000A1201100100000077
:1009300008EFFE616001000102030105010980A1C9
:100940000185031A81002A83001601002603009501
:100950000175108100C0050C0901A10185041A016F
:10096000002A9C02160100269C0295017510810048
:10097000C005010906A1018505050719E029E7154C
:100980000025019508750181020507190029EF1559
:1009900000250195F07501810205081901290595C9
:1009A0000575019102950175039101C005010906C4
:1009B000A101050719E029E7150025019508750132
:1009C00081029501750881010507190029FF1500AD
:1009D00026FF00950675088100050819012905956F
:1009E0000575019102950175039101C011241FBE87
:1009F000CFEFDAE0DEBFCDBF04B603FE27C08091A3
:100A0000AA059091AB05A091AC05B091AD058730DA
:100A1000904BA740B04BD1F41092AA051092AB05B1
:100A20001092AC051092AD0514BE84B7877F84BFC9
:100A30000FB6F894A895809160008861809360005B
:100A4000109260000FBEE0E0F8E3099511E0A0E02D
:100A5000B1E0EAEAFDE602C005900D92AA3DB107B9
:100A6000D9F725E0AAEDB1E001C01D92AA3AB2077C
:100A7000E1F70E9406300C94D3360C9400008111EB
:100A800007C0611102C089EA01C08AEA0C941621EC
:100A9000089582E00895CF9360E080EA91E00E949B
:100AA000151A6091A3027091A4028091A502909101
:100AB000A6020E94202A882331F0813041F460E0B0
:100AC0008CE991E007C060E08FE991E003C060E04D
:100AD00086E991E00E94271A0E94581EC82F80FDC7
:100AE00003C08AE891E002C080E991E060E00E94E2
:100AF000151AC1FD03C08CE791E002C084E891E0C3
:100B000060E00E94151AC2FD03C08EE691E002C0AB
:100B100086E791E060E0CF910C94151A81E008958A
:100B200081E008950C9490051F93CF93DF9300D03C
:100B300000D01F92CDB7DEB749835A836B832091D3
:100B40004C0289819A81211112C0662349F00E94CA
:100B5000EE28182F682F89819A810E94972803C058
:100B60000E94C228182F69817A81812F04C00E94B7
:100B7000EE2869817A810F900F900F900F900F905F
:100B8000DF91CF911F910C947406FC01408151813B
:100B90006281738184810C9494050E94702A811172
:100BA00002C00E941A2B0E94E4160E945A180C944C
:100BB00028090E9410150E946B180C9424090895AE
:100BC0000C94DF0581E008950C94E205CF93C82FC3
:100BD0000E94E0058C2F0E94E405CF9108950895AE
:100BE0000E948C230E94EF052FEF84E39CE02150AC
:100BF00080409040E1F700C000000C94CC2C0F9393
:100C00001F93CF93DF93EC010E94C5058C01BE01B9
:100C10000E947214882309F45DC0BE01C8010E94BD
:100C20009205882309F456C0BE01C8010E94021C27
:100C3000882309F44FC0BE01C8010E94431C8823C9
:100C400009F448C0BE01C8010E94C917882309F4ED
:100C500041C08A81882371F001158CE5180739F0AD
:100C60000E3D8CE5180731F40E941A2B33C00E9408
:100C7000F00530C006311C4531F50E946F29982FD0
:100C80008A812091950130919601882379F09A7A92
:100C900081E009F480E08093DA01911102C069E2F9
:100CA00001C065E3C9010E94872B0AC08091DA0167
:100CB000811102C069E201C065E3C9010E94922B63
:100CC0000E94BD2907C0CE01DF91CF911F910F91E6
:100CD0000C948E0580E0DF91CF911F910F910895C4
:100CE00080E090E0089508952AE2829FC0011124D7
:100CF000FC0127E0729FE00DF11D1124E60FF11DAC
:100D0000EE0FFF1FE455FE4F859194910895880FD3
:100D1000991FFC01EC5AFD4F859194910895CF9352
:100D2000DF930E9474060E944308EC0181159045F0
:100D3000C8F5C11580E4D80708F023C1C03ED1052D
:100D4000D8F4C03CD10508F00BC1C83AD10578F4FD
:100D5000C53AD10508F09AC0C130D10509F48FC158
:100D600008F440C1C430D10508F089C13BC1CF3B74
:100D7000D10508F496C036C1C11590E2D90750F4E8
:100D8000C11521E0D20708F07AC1C83ED10508F4A8
:100D900076C128C1C11580E3D80708F0E8C0CE01AC
:100DA0009F70E1C0C11595E5D90708F043C0C11592
:100DB00024E5D20708F0FCC0C11582E5D80708F584
:100DC000C11591E5D90708F0DFC0CE0174E0969512
:100DD00087957A95E1F783709C2F937021E030E03E
:100DE00002C0220F331F9A95E2F73C68382BCF7070
:100DF000C695C69580E2C89FE0011124C22BD32B73
:100E00003EC19E01237033278C2F86958695C11590
:100E1000D34508F0BEC0C1E0D0E002C0CC0FDD1F5A
:100E20002A95E2F720E2829FC0011124C82BD92B1A
:100E3000DC6825C1C11529E5D207A0F4C11588E5F4
:100E4000D80708F0BAC0C11596E5D90708F0CAC09E
:100E50008C2F0E94D7088F71C82FD0E0DC2FCC27B1
:100E6000D0620DC1C1152AE5D20708F4ABC0CE018E
:100E700090568115904208F0B5C08D2F8F710E9459
:100E8000D708DD27D0628F71D82BF9C0C53AD105BC
:100E900009F4ABC0C63AD10509F0AAC0C2E8D0E453
:100EA000EEC0C83AD10509F4A6C0C93AD10509F483
:100EB000A5C0CA3AD10509F4A4C0CB3AD10509F4BA
:100EC000A3C0CC3AD10509F4A2C0CB3BD10509F4AB
:100ED000A1C0CC3BD10509F4A0C0CD3AD10509F49D
:100EE0009FC0C03BD10509F49EC0CE3AD10509F49C
:100EF0009DC0CF3AD10509F49CC0C13BD10509F48E
:100F00009BC0C23BD10509F49AC0C33BD10509F48B
:100F100099C0C43BD10509F498C0C53BD10509F47B
:100F200097C0C63BD10509F496C0C73BD10509F46B
:100F300095C0C83BD10509F494C0C93BD10509F45B
:100F400093C0CD3BD10509F492C0CE3BD10509F445
:100F500091C0CA3BD10509F490C0C0E0D4E48FC071
:100F6000CE01805C91090E948706EC0188C0CE0109
:100F70009927D3FF03C0EC01D86C81C0EC01D06C81
:100F80007EC0DF70D06A7BC0DC2FCC27C16FD06AF7
:100F900076C0C1E0D0E002C0CC0FDD1F2A95E2F799
:100FA00020E2829FC0011124C82BD92BDA6867C0C8
:100FB000DC2FCC27C46FD06A62C0DC2FCC27C06F77
:100FC000D06A5DC08C2F8F700E94D70894E0D695B0
:100FD000C7959A95E1F7CF70D0E0DC2FCC27D06988
:100FE000C82B4DC0C0E0D0E04AC0C1E8D0E447C043
:100FF000C3E8D0E444C0C2EED4E441C0C9EED4E4B6
:101000003EC0CAEED4E43BC0C5EBD4E438C0C6EB66
:10101000D4E435C0C3EBD4E432C0C4EBD4E42FC075
:10102000C7EBD4E42CC0CCECD4E429C0CDECD4E4A0
:1010300026C0C3E8D5E423C0CAE8D5E420C0C2E98D
:10104000D5E41DC0C4E9D5E41AC0C1E2D6E417C096
:10105000C3E2D6E414C0C4E2D6E411C0C5E2D6E4CB
:101060000EC0C6E2D6E40BC0C7E2D6E408C0CFE6A5
:10107000D4E405C0C0E7D4E402C0CAE2D6E4CE019D
:10108000DF91CF9108958238910569F1B0F48133F1
:10109000910509F46DC048F48932910509F463C0E3
:1010A0008A32910509F469C008958533910509F4E0
:1010B00055C089339105B9F00895833E910569F1D2
:1010C00038F4803E9105B1F0823E910509F1089512
:1010D000863E9105A9F1873E9105B9F1843E9105BF
:1010E00009F064C023C020919B0520FD4FC021FD65
:1010F0004DC0089580919B0580FD44C080919C0562
:1011000080FF44C080919B0584FD42C083EE4DC0AA
:1011100080919B0582FF38C0F5CF80919B0582FDB1
:1011200033C080919C0580FD31C0ECCF80919C053F
:1011300081FF32C080919B0584FD2AC087EE35C0B7
:1011400080919B0583FF26C0F5CF80919B0583FD91
:1011500021C080919C0581FD1FC0ECCF80919B0533
:1011600085FD1CC01DC080919B0585FD19C016C062
:1011700080919B0586FD16C017C080919B0586FD5A
:1011800013C010C089E311C082EE0FC080EE0DC005
:1011900080E00BC086EE09C084EE07C089E205C07E
:1011A00085E303C08AE201C081E390E00895909155
:1011B0009B0592FF0DC0282F2871283019F4877FD6
:1011C000846006C0282F2471243011F48B7F88603E
:1011D00093FF0DC0282F2871283119F4877E846170
:1011E00006C0282F2471243111F48B7E8861209150
:1011F0009C0520FF0DC0382F3871383019F4877FD7
:10120000816006C0382F3171313011F48E7F8860D3
:1012100021FF0DC0282F2871283119F4877E8161A4
:1012200006C0282F2171213111F48E7E886194FD32
:10123000877E0895E82FF0E0E550FD4F8081089506
:10124000089508950C9421090C9422090C94210905
:101250000C942609CF93DF93ACEAB1E042EB51E066
:1012600061E070E08D91E82FE295EF70F0E021A150
:101270008F70EB0102C0CC0FDD1F8A95E2F7CE0123
:101280009C2F9095922391A392A1892B82A34A1718
:101290005B0741F7A5EAB1E04CEA51E061E070E09C
:1012A0008D91E82FE295EF70F0E021A18F70EB01B6
:1012B00002C0CC0FDD1F8A95E2F7CE019C2F9095DE
:1012C000922391A392A1892B82A34A175B0741F72E
:1012D000E5EFF2E0ABEFB2E08BEF92E011921D92FE
:1012E0008E179F07D9F786E00E94080ADF91CF91F9
:1012F0000C94CD055F926F927F928F929F92AF92E6
:10130000BF92CF92DF92EF92FF920F931F93CF93F2
:10131000DF936CEA71E0A5EFB2E02BEFA22E22E0A2
:10132000B22E612C01E010E06D015C901C92EB018B
:101330008991BE01E82FE295EF70F0E021A18F7056
:10134000A80102C0440F551F8A95E2F7CA01242B59
:1013500021A322A1942E9094292122A350EA5A95E8
:10136000F1F795EAE92E91E0F92E40E050E0E7012F
:1013700089907E01282D22952F7030E0E90128A167
:101380007C9030E0D82DDF7002C035952795DA9536
:10139000E2F720FD08C0302F042E01C0330F0A945D
:1013A000EAF7232F01C020E027292C934F5F5F4FDE
:1013B00047305105E1F691A1992291A292A1892B82
:1013C00082A3119681E0F6019081951101C080E021
:1013D000682AAA16BB0609F0A7CF262D46E06BEFB8
:1013E00072E085EF92E00E94090A0E94D905862DDD
:1013F000DF91CF911F910F91FF90EF90DF90CF90F1
:10140000BF90AF909F908F907F906F905F90089566
:101410000895FF920F931F93CF93DF938C01F62EC5
:10142000D72FC42F222349F081E08093DD010E9451
:10143000382C9093DC018093DB018091DD018823BF
:10144000C1F08091DB019091DC010E94502C069745
:1014500080F0EF2DFD2FD8014C2F50E0CD01801BE7
:10146000910B841795071CF48D918193F7CF1092FF
:10147000DD01DF91CF911F910F91FF900895EF92C1
:10148000FF920F931F93CF93DF93F62E472FE82FF2
:10149000F0E0711106C0EC5AFD4F6491762F862F53
:1014A00072C0272F30E0EC5AFD4FE4910E2F10E070
:1014B00056E0659FC0011124CFEFD0E0BE010E942D
:1014C00075355BEA5603C001579F900D11248F0DAF
:1014D000911D8F0D911D982F990F890F7E01E21A92
:1014E000F30AE09ED001E19EB00DF09EB00D1124F4
:1014F000489FA0011124452F55277E01E41AF50AC3
:10150000E09EA001E19E500DF09E500D11247E0141
:10151000E81AF108E29EC001E39E900DF29E900D44
:101520001124892F9927C81BD90BC09FC001C19FC7
:10153000900DD09F900D11246230710591F048F408
:1015400061157105E1F061307105A9F48B2F752FDC
:1015500019C06430710561F038F06630710579F0BA
:101560000AC0892F7B2F0EC08E2F7B2FE52F0AC03C
:101570008E2F792F02C0852F7E2FEB2F03C08B2F4C
:101580007E2FE92F6E2FDF91CF911F910F91FF904A
:10159000EF90089520E030E0869F212D969F200D4A
:1015A000311D1124C9010895BC018230910508F450
:1015B0000895613E8EE1780748F49B0195E03695E9
:1015C00027959A95E1F748E0420F01C04FEF91E06F
:1015D000242F30E0290F311D35952795229FF001EA
:1015E000239FF00DF00D11246E177F0718F44FEFB5
:1015F000420F04C02F3F39F091E0920F491740F796
:101600008FEF890F08958FEF0895482F982F46FD8B
:101610009095E92FEF739F7046FD9F5FE295EF7005
:10162000EE0FF0E0EE54FE4F2181299F802D212DF9
:10163000112482958F702295207F822B3081982FE4
:10164000930F892F47FD819580580895E42FF0E08E
:10165000EE0FFF1FE25DFE4F408134EE439F412DB0
:101660001124E72FF0E050E0445E5F4FDA01A21B47
:10167000B1099D01B7FF03C031952195310993E070
:10168000220F331F9A95E1F7AF01421B530B9A01CA
:1016900057FF02C020E030E0279F212D1124722F38
:1016A0000895E42FF0E0EE0FFF1FE25DFE4F408152
:1016B00034EE439F412D1124E82FF0E050E0445ECA
:1016C0005F4FDA01A21BB1099D01B7FF03C031953D
:1016D0002195310993E0220F331F9A95E1F7AF016D
:1016E000421B530B9A0157FF02C020E030E0582FF5
:1016F000259F212D1124822F0895622F0895E42F14
:10170000F0E0EE0FFF1FE25DFE4F6081621B089567
:10171000E42FF0E0EE0FFF1FEC5FFE4F63A5621BAE
:101720000895A22F50E0FA01EE0FFF1FEC5FFE4F6D
:1017300093A5905297FD9195440F551FFA01E25DD4
:10174000FE4F3081232F30E02A1B3109290F311D34
:1017500097FD3A95620F0895EF920F931F9393E0D0
:10176000099F80011124159507956E2D600F1F911B
:101770000F91EF9008950F93CF93DF93D72FC82F3A
:1017800047FD4195E8E3F0E0CF01841B910947FD57
:101790009395889FB001899F700D700D1124229F31
:1017A000C001239F900D900D1124860F971F0E945A
:1017B000D40A682F660F860F682F600F7D2F8C2F3D
:1017C000DF91CF910F9108950F931F93522F10E047
:1017D000F801EE0FFF1FEC5FFE4FE3A5F0E0B097BE
:1017E0009F015203D001539FB00D1124000F111F10
:1017F000F801E25DFE4F008110E00057110940033F
:101800009001419F300D11242A0F3B1F37FF02C06A
:1018100021583F4F220F232F221F330B620F1F919E
:101820000F9108950F931F93522F10E0F801EE0FC0
:10183000FF1FEC5FFE4FE3A5F0E0B097EE0FFF1F38
:101840009F015203D001539FB00D1124000F111FAF
:10185000F801E25DFE4F008110E000571109000F12
:10186000111F40039001419F300D11242A0F3B1F8F
:1018700037FF02C021583F4F220F232F221F330B67
:10188000620F1F910F9108950F931F9310E0F801BD
:10189000EE0FFF1FE25DFE4F9081905797FD9195EF
:1018A000000F111FF801EC5FFE4FE3A5F0E0B097C9
:1018B000DF01AA0FBB1F8D010E0F1F1F2003D001D8
:1018C000219FB00D1124E8E3F0E0E91BF10997FD39
:1018D000F3959F01220F331F89010E0F1F1F400335
:1018E0009001419F300D11242A0F3B1F37FF02C08A
:1018F00021583F4F220F232F221F330B620F1F91BE
:101900000F9108954095282F429F412D1124842F37
:10191000089522E8241B08F420E0620F0895EF9256
:10192000FF920F93970195E0099F200D311D11241F
:101930002F3F310519F010F02FEF30E02095382FB0
:10194000320F08F43FEF832F0F91FF90EF9008952F
:10195000EF92FF920F93E00EF11CF90137FF03C0E5
:10196000F195E195F10924E0EE0FFF1F2A95E1F7CB
:10197000EF3FF10519F014F0EFEFF0E09A0157FF97
:1019800003C031952195310994E0220F331F9A95B8
:10199000E1F72E173F070CF4F901EE0DFF1DEF3FA5
:1019A000F10519F010F0EFEFF0E02E2F2095382F11
:1019B000320F08F43FEF832F0F91FF90EF900895BF
:1019C000EF92FF920F93972F093438F4B701601B01
:1019D00071096F3F710519F010F06FEF70E0485F0B
:1019E0005F4F4131510540F0A901485F5F4F4131E0
:1019F000510510F06FEF70E06095482F460F08F426
:101A00004FEF842F37FF02C02D5F3F4F359527954D
:101A10003595279560910203620F792F0F91FF9002
:101A2000EF900895EF92FF920F939701201B3109D9
:101A30002F3F310519F010F02FEF30E0322F3095A5
:101A4000482F430F08F44FEF842F620F0F91FF9040
:101A5000EF900895EF92FF920F939701201B3109A9
:101A60002F3F310519F010F02FEF30E02095382F7F
:101A7000320F08F43FEF832F0F91FF90EF900895FE
:101A8000FC019B01009721F477FF2BC080E80895AB
:101A9000AC0197FF04C044275527481B590BB901D7
:101AA000640F751F37FD0CC0241B350BC901A5E061
:101AB000880F991FAA95E1F70E94893580E20CC032
:101AC000CB0165E0880F991F6A95E1F7BA01621BA7
:101AD000730B0E94893580E6861BF7FF03C0819552
:101AE000089580E00895FF920F931F93CF93DF93A3
:101AF000F62E172FD82FC901C72FC01BBA010E947D
:101B0000400D982F990F890F7C2F781B719F712D95
:101B100011246F2D8D2FDF91CF911F910F91FF9089
:101B20000895FF920F931F93CF93DF93F62ED72F35
:101B3000182FC901C12FC01BBA010E94400D982F58
:101B4000990F890FC81B2C2F219F212D1124822F23
:101B50006F2D7D2FDF91CF911F910F91FF900895F1
:101B6000EF920F931F93CF93DF93D62F172FC82F8A
:101B7000C9010E19070FBA010E94400D702F781B82
:101B8000719F712D11246D2F8C2FDF91CF911F919B
:101B90000F91EF900895EF920F931F93CF93DF93E0
:101BA000D62FC72F182FC9010E19010FBA010E9495
:101BB000400D081B202F219F212D1124822F6D2FD6
:101BC0007C2FDF91CF911F910F91EF9008950F938C
:101BD000CF93DF93D72FC82FC901BA010E94400DC0
:101BE000682F600F7D2F8C2FDF91CF910F9108957B
:101BF000EF920F93CF93DF93D72FC82FC9010E1900
:101C0000BA010E94400D602F681B7D2F8C2FDF9141
:101C1000CF910F91EF90089545E050E06CE170E0B6
:101C200081E093E00C945F3645E050E06CE170E0B9
:101C300081E093E00C947D36E1E0F3E085E380837E
:101C40008091A2019091A301A091A401818392832C
:101C5000A3838FE784830C94140E80E008950F9380
:101C60001F93CF93DF93C82FD62F8A010E942D0E8A
:101C700097E0C99FF0011124EC5FFE4FED0FF11DBD
:101C800090819F3F29F0F801E80FF11D90838F5F4D
:101C9000DF91CF911F910F910895E091C001F091D4
:101CA000C1010994E091BC01F091BD0109944F92EA
:101CB0005F926F927F928F929F92AF92BF92CF92DC
:101CC000DF92EF920F931F93CF93DF932C013B0191
:101CD000FC01C0818C2F880FC80FCC0FD6E0DC0F21
:101CE000DF3108F0DEE160910503669580912F03F6
:101CF000909130030E94CA0A182FCD1708F044C0F3
:101D00008C2E912CF401E659FE4F9081F2018181D5
:101D10008923C1F1F401EE0FFF1FE25DFE4FC08089
:101D2000D12CF0E7CF1AD108F401EE0FFF1FEC5FC2
:101D3000FE4FA3A4B12C80E2A81AB108CC9C90015C
:101D4000CD9C300D300D1124AA9CC001AB9C900D90
:101D5000900D1124820F931F0E94D40A082F6091C6
:101D600002037091030380910403E12E9501A60103
:101D7000F30109950E943F0A462F282F672FC401BF
:101D80000E94520ECF5FB9CF81E0DE3108F080E0D3
:101D9000DF91CF911F910F91EF90DF90CF90BF9087
:101DA000AF909F908F907F906F905F904F9008952D
:101DB00060EB7DE00C94570E6BEC7DE00C94570EBD
:101DC0006CEA7BE00C94570E68EF7DE00C94570EA4
:101DD000AF92BF92CF92DF92EF92FF920F931F9339
:101DE000CF93DF936C015B01FC01C0818C2F880FC6
:101DF000C80FCC0FD6E0DC0FDF3108F0DEE16091D8
:101E00000503669580912F03909130030E94CA0AC2
:101E1000182FCD1778F5EC2EF12CF701E659FE4F6F
:101E20009081F6018181892319F1F701EE0FFF1FDF
:101E3000EC5FFE4F23A530E020523109F701EE0F91
:101E4000FF1FE25DFE4F408150E040575109609115
:101E500002037091030380910403012FF50109959A
:101E60000E943F0A462F282F672FC7010E94520E5B
:101E7000CF5FCFCF81E0DE3108F080E0DF91CF91FE
:101E80001F910F91FF90EF90DF90CF90BF90AF9098
:101E9000089563E77DE00C94E80E61E97DE00C9421
:101EA000E80E6BEB7BE00C94E80E67EE7DE00C94A3
:101EB000E80EBF92CF92DF92EF92FF920F931F93A3
:101EC000CF93DF938C017B01FC01C0818C2F880FA5
:101ED000C80FCC0FD6E0DC0FDF3108F0DEE16091F7
:101EE00005036695669580912F03909130030E94BB
:101EF000CA0AB82ECD17F0F4CC2ED12CF601E65933
:101F0000FE4F9081F8018181892391F06091020355
:101F100070910303809104032B2D4C2FF701099539
:101F20000E943F0A462F282F672FC6010E94520E9B
:101F3000CF5FE0CF81E0DE3108F080E0DF91CF912C
:101F40001F910F91FF90EF90DF90CF90BF90089579
:101F500066E27BE00C94590F61E57BE00C94590F2D
:101F60006DE77BE00C94590F6FE77BE00C94590F01
:101F700068E87BE00C94590F61E97BE00C94590F01
:101F80007F928F929F92AF92BF92CF92DF92EF9209
:101F9000FF920F931F93CF93DF936C015B01FC01C2
:101FA000C0818C2F880FC80FCC0FD6E0DC0FDF313B
:101FB00008F0DEE1609105036695669580912F0338
:101FC000909130030E94CA0A182F80E4810F0E946A
:101FD000050B90E8F92EF80E812F0E94050B20E8E2
:101FE000722E780ECD1700F58C2E912CF401E65947
:101FF000FE4F9081F60181818923A1F06091020357
:102000007091030380910403E12E0C2F272D4F2D97
:10201000F50109950E943F0A462F282F672FC4011A
:102020000E94520ECF5FDECF81E0DE3108F080E00B
:10203000DF91CF911F910F91FF90EF90DF90CF90A4
:10204000BF90AF909F908F907F90089564EE7BE05B
:102050000C94C00F62E17CE00C94C00F64E47CE05F
:102060000C94C00FAF92BF92CF92DF92EF92FF928B
:102070000F931F93CF93DF937C015B01FC01C08121
:102080008C2F880FC80FCC0FD6E0DC0FDF3108F0A3
:10209000DEE12091050330E040E050E06FEF7FEF9C
:1020A00080E090E00E949D358901CD17E8F5CC2EA7
:1020B000D12CF601E659FE4F9081F70181818923E9
:1020C00089F190910603915097FD15C0292F092E93
:1020D000000C330BF901EA5FFC4F8189C813F3CF81
:1020E000220F331FF901EA5FFC4F218D328D20173B
:1020F000310748F701C0980160910503C9010E94AA
:10210000CA0AAC0160910203709103038091040339
:10211000F50109950E943F0A462F282F672FC60117
:102120000E94520ECF5FC1CF81E0DE3108F080E027
:10213000DF91CF911F910F91FF90EF90DF90CF90A3
:10214000BF90AF90089562E87CE00C94321069E88B
:102150007CE00C9432102F923F924F925F926F92DC
:102160007F928F929F92AF92BF92CF92DF92EF9227
:10217000FF920F931F93CF93DF93CDB7DEB72997CD
:102180000FB6F894DEBF0FBECDBF8B834B013A0173
:10219000DB011C91812F880F180F110FB6E0B10FD2
:1021A000B983BF3110F0EEE1E983F0910603FA83C1
:1021B0008981181708F07BC0A12EB12CF501E659D2
:1021C000FE4F9081D40111968C91892309F46DC042
:1021D00020900203309003034B80512CC501880FDF
:1021E000991FFC01E25DFE4FFD83EC83C501880F62
:1021F000991F9C01215D3E4F3F832E83FA814F162C
:1022000008F043C0E42CF12CAC81BD81BC91EB2FD4
:10221000F0E0F987E887F701EA5FFC4F81812885C4
:102220003985281B310939872887AE81BF81CC9039
:10223000D12C8185C81AD108F901EE9F9001EF9F3A
:10224000300D300D1124CC9CC001CD9C900D900D13
:102250001124820F931F0E94D40A082FF701EE0F5A
:10226000FF1FEA5FFC4F60910503818D928D0E94F4
:10227000CA0A7C01960148855985B101852DF30173
:1022800009951B014394582EB9CF20910403352D95
:10229000329F312D1124832FB1010E943F0A462F16
:1022A000282F672FC5010E94520E1F5F81CF81E04A
:1022B00099819E3108F080E029960FB6F894DEBF30
:1022C0000FBECDBFDF91CF911F910F91FF90EF9087
:1022D000DF90CF90BF90AF909F908F907F906F9046
:1022E0005F904F903F902F9008952091060331E02A
:1022F000231B08F420E04FE85CE0BC01822F0C9423
:10230000AB104FE85CE0BC0180E00C94AB10209176
:10231000060331E0231B08F420E048EA5CE0BC013E
:10232000822F0C94AB1048EA5CE0BC0180E00C9476
:10233000AB102091060331E0231B08F420E040EEAF
:102340005CE0BC01822F0C94AB1040EE5CE0BC0161
:1023500080E00C94AB102091060331E0231B08F4BD
:1023600020E042E15DE0BC01822F0C94AB1042E121
:102370005DE0BC0180E00C94AB102091060331E0DD
:10238000231B08F420E04AE25DE0BC01822F0C949C
:10239000AB104AE25DE0BC0180E00C94AB10DF9230
:1023A000EF92FF920F931F93CF93DF938C01DC0189
:1023B000CC918C2F880FC80FCC0FD6E0DC0FDF310B
:1023C00008F0DEE160910203709103038091040341
:1023D0000E943F0AF62EE72ED82ECD1798F4EC2F48
:1023E000F0E0DF01A659BE4F8C91D80111969C9167
:1023F000982331F02D2D4F2D6E2DCF010E94520EBE
:10240000CF5FEBCF81E0DE3108F080E0DF91CF914C
:102410001F910F91FF90EF90DF900895AF92BF92C0
:10242000CF92DF92EF92FF920F931F93CF93DF93A0
:102430008C01FC01C0818C2F880FC80FCC0FD6E017
:10244000DC0FDF3108F0DEE1E0900303F0900403DD
:10245000D09002036D2D7E2D8F2D0E943F0AC62E37
:10246000B72EA82E609105036D0D7E2D8F2D0E9435
:102470003F0AF62EE72ED82ECD17B8F48C2F90E019
:10248000FC01E659FE4F3081F8012181232359F0E8
:1024900030FF04C02D2D4F2D6E2D03C02A2D4C2D45
:1024A0006B2D0E94520ECF5FE7CF81E0DE3108F046
:1024B00080E0DF91CF911F910F91FF90EF90DF901F
:1024C000CF90BF90AF900895BF92CF92DF92EF92DE
:1024D000FF920F931F93CF93DF936C01FC01C08198
:1024E0008C2F880FC80FCC0FD6E0DC0FDF3108F03F
:1024F000DEE100910303B09004032091050310E492
:10250000129F112D1124CD1718F5EC2EF12CF70187
:10251000E659FE4F9081F60181818923B9F0F701D8
:10252000EE0FFF1FEC5FFE4F83A582958F706091C9
:102530000203819F600D1124702F8B2D0E943F0A92
:10254000462F282F672FC7010E94520ECF5FDBCF87
:1025500081E0DE3108F080E0DF91CF911F910F9193
:10256000FF90EF90DF90CF90BF900895BF92CF92F1
:10257000DF92EF92FF920F931F93CF93DF937C0133
:10258000FC01C0818C2F880FC80FCC0FD6E0DC0F68
:10259000DF3108F0DEE1C0900303B0900403209126
:1025A000050330E4D32E3D2D329F312D1124D32E3F
:1025B000CD1738F50C2F10E0F801E659FE4F908149
:1025C000F70181818923D9F0F801EE0FFF1FE25D49
:1025D000FE4F6081D69EB001112495E075956795F8
:1025E0009A95E1F780910203680F7C2D8B2D0E9454
:1025F0003F0A462F282F672FC8010E94520ECF5F37
:10260000D7CF81E0DE3108F080E0DF91CF911F91DC
:102610000F91FF90EF90DF90CF90BF900895DF92E1
:10262000EF92FF920F931F93CF93DF938C01DC0106
:10263000CC918C2F880FC80FCC0FD6E0DC0FDF3188
:1026400008F0DEE1E0900203F0900303D090040371
:102650006091050366956695669580912F0390912C
:1026600030030E94CA0A0E94050B805887FD81959D
:10267000880F282F3D2D239F212D1124822FB70154
:102680000E943F0AF62EE72ED82ECD1798F4EC2F95
:10269000F0E0DF01A659BE4F8C91D80111969C91B4
:1026A000982331F02D2D4F2D6E2DCF010E94520E0B
:1026B000CF5FEBCF81E0DE3108F080E0DF91CF919A
:1026C0001F910F91FF90EF90DF900895DF92EF92AE
:1026D000FF920F931F93CF93DF93EC01FC01E65918
:1026E000FE4F9081692381F1D09003030091040390
:1026F00010910203E12EF12C0E943036282FC701E1
:102700008C549F4F68E671E00E9489358E199F09AD
:1027100097FD039695958795959587952370612FDD
:10272000289F600D11247D2D802F0E943F0A462F87
:10273000282F672FCE01DF91CF911F910F91FF902E
:10274000EF90DF900C94520EDF91CF911F910F917B
:10275000FF90EF90DF900895CF92DF92FF920F935A
:102760001F93CF93DF938C01FC01C281C1111DC067
:102770006091050320E1620F08F46FEF80912F0351
:10278000909130030E94CA0A6AE070E00E94753599
:10279000892B59F50E9430366EE170E00E94893530
:1027A000F80161810E94661320C0FC01C0818C2F5A
:1027B000880FC80FCC0F96E0F92EFC0EFEE1FF1536
:1027C00010F48EE1F82ED0E0CF2CD12CCC15DD0505
:1027D0003CF4F8016181CE010E9466132196F6CF88
:1027E000C1E0FDE1FF1508F4C0E08C2FDF91CF912F
:1027F0001F910F91FF90DF90CF9008951F93CF937B
:10280000DF93FC01E659FE4F20816223A9F0EC0121
:102810000E943036182F0E943036612F782F809119
:1028200004030E943F0A462F282F672FCE01DF9115
:10283000CF911F910C94520EDF91CF911F9108956B
:10284000CF92DF92FF920F931F93CF93DF938C0170
:10285000FC01C281C1111DC06091050320E1620F1E
:1028600008F46FEF80912F03909130030E94CA0A01
:1028700065E070E00E947535892B59F50E9430366D
:102880006EE170E00E948935F80161810E94FE13BB
:1028900020C0FC01C0818C2F880FC80FCC0F96E0A0
:1028A000F92EFC0EFEE1FF1510F48EE1F82ED0E0BB
:1028B000CF2CD12CCC15DD053CF4F8016181CE0183
:1028C0000E94FE132196F6CFC1E0FDE1FF1508F44A
:1028D000C0E08C2FDF91CF911F910F91FF90DF907F
:1028E000CF900895CF92DF92EF92FF920F931F93B4
:1028F000CF93DF93CDB7DEB728970FB6F894DEBF3E
:102900000FBECDBFFB018281882389F0AE014F5FEE
:102910005F4F608181810E942F0EF82E1092330349
:1029200010923403109235031092360301C0F12C3B
:10293000E090DE010F2D10E0C8018E0D911D09976A
:1029400064F188E090E06C01C01AD10AB8016152CC
:102950007E4FA6018FED91E00E945636B801695175
:102960007E4FA60187EE91E00E945636A601440FE5
:10297000551FB801660F771F69507E4F87EF91E0B2
:102980000E945636B80161517E4FA6018FEE91E04C
:102990000E945636EA94E092DE011091DE01DE01DB
:1029A000119640E0842F810FF41609F190E05D91BB
:1029B000252F30E0BC0162527E4FF901EE0FFF1F60
:1029C000E25DFE4F0081FB010183220F331FF901FD
:1029D000EC5FFE4F23A5FB012187518B880F991FC8
:1029E000FC01E252FE4F128E118E4F5FDBCF8093BF
:1029F000DE0181E028960FB6F894DEBF0FBECDBF92
:102A0000DF91CF911F910F91FF90EF90DF90CF90CA
:102A1000089508950C9409150E940A150C9409153F
:102A2000CF92DF92EF92FF920F931F93CF93DF939A
:102A300060910702709108028091090290910A0248
:102A40000E947A2C6B017C01EB010E94442CAB01AB
:102A5000BC014093070250930802609309027093EF
:102A60000A028091330390913403A0913503B09111
:102A700036038F3F2FEF9207A207B20729F1EE240A
:102A8000FF24970186010095109520953095081731
:102A900019072A073B0760F48FEF9FEFDC01809353
:102AA000330390933403A0933503B09336030CC0E3
:102AB000C80ED91EEA1EFB1EC0923303D092340307
:102AC000E0923503F0923603A091DE01EEEDF1E0E5
:102AD0002A2F30E07E01E094F094A31771F0818DED
:102AE000928DE816F90610F4215004C08C0F9D1F3A
:102AF000928F818F3F5F3296F0CF2093DE01F0906E
:102B00000B02F11008C0D09101038D2F837019F0D2
:102B1000D695D69501C0D0E0809188018130E9F04A
:102B200038F0823009F41DC1833009F427C137C160
:102B30001092890140932F03509330036093310327
:102B40007093320389E2EEEDF1E0A6E0B3E001908C
:102B50000D928A95E1F781E00EC180918C01D81326
:102B60000DC020910103237030E040918D0150E0B1
:102B700081E02417350719F480E001C081E08170FD
:102B800080938B014D2F50E04532510508F0D7C09E
:102B9000FA01EA5AFF4F0C94BC35882309F4CFC0E0
:102BA000C09189018C2F880FC80FCC0F16E01C0F25
:102BB0001F3108F01EE1C11748F420E040E060E05A
:102BC0008C2F90E00E94520ECF5FF5CF81E01E3136
:102BD00008F4B6C0B4C089E891E00E94CF11B0C03B
:102BE00089E891E00E940E12ABC089E891E00E9452
:102BF0006412A6C089E891E00E94B612A1C089E8DB
:102C000091E00E940F139CC089E891E00E94A80FF8
:102C100097C089E891E00E94AC0F92C089E891E0EA
:102C20000E94490F8DC089E891E00E944D0F88C035
:102C300089E891E00E94D80E83C089E891E00E9463
:102C4000DC0E7EC089E891E00E94B00F79C089E86F
:102C500091E00E94B40F74C089E891E00E94B80F1F
:102C60006FC089E891E00E94BC0F6AC089E891E0DA
:102C70000E94E00E65C089E891E00E94510F60C09B
:102C800089E891E00E94550F5BC089E891E00E94BD
:102C9000E40E56C089E891E00E94261051C089E8F0
:102CA00091E00E942A104CC089E891E00E942E1009
:102CB00047C089E891E00E94AC1342C089E891E0E6
:102CC0000E9420143DC089E891E00E94A31038C002
:102CD00089E891E00E94A71033C089E891E00E9442
:102CE00075112EC089E891E00E94811129C089E800
:102CF00091E00E94871124C089E891E00E9493111D
:102D00001FC089E891E00E9499111AC089E891E0FA
:102D10000E94A51115C089E891E00E94AB1110C076
:102D200089E891E00E94B7110BC089E891E00E9408
:102D3000BD1106C089E891E00E94C91101C080E080
:102D4000909189019F5F90938901811128C082E051
:102D50008093880180918B01811121C0DD2351F086
:102D60001EC0D0938C0180910103837080938D01EC
:102D70000E944D0E83E08093880111C060912F0363
:102D80007091300380913103909132030E947A2C2C
:102D9000603171058105910510F010928801F110E4
:102DA0000AC0DF91CF911F910F91FF90EF90DF90BC
:102DB000CF900C940C15DF91CF911F910F91FF9044
:102DC000EF90DF90CF900895E091BA01F091BB01B0
:102DD000099510920603EFE1F3E08FEF9FEF8193E7
:102DE000919323E0EF32F207D1F71092DE01E7EF83
:102DF000F1E08FEF9FEF8193919322E0E730F207AC
:102E0000D1F70E94702A811104C00E941A2B0E94DF
:102E10001C0E0E940C0E809101038C7F11F40C9407
:102E20001C0E0895E1E0F3E0908181E08927808322
:102E3000109288010C94140E90910103892F8695AD
:102E400086958F5F8F739370853220F4880F880F7B
:102E5000892B02C0892F846080930103109288011E
:102E60000C94140E90910103892F86958695815CB0
:102E70008F739370882321F0880F880F892B02C0ED
:102E8000892F806980930103109288010C94140E9D
:102E9000E1E0F3E08181885F81830C94140EE1E02E
:102EA000F3E08181885081830C94140EE1E0F3E01B
:102EB000228138E0230F08F42FEF22830C94140EA4
:102EC000E1E0F3E0228138E0231B08F420E02283D4
:102ED0000C94140E2091040338E0230F08F42FEF14
:102EE000293C18F42093040303C088EC8093040366
:102EF0000C94140EE1E0F3E0238138E0231B08F486
:102F000020E023830C94140EE1E0F3E024813AE006
:102F1000230F08F42FEF24830C94140EE1E0F3E068
:102F200024813AE0231B08F420E024830C94140E3F
:102F3000E1E0F3E0880F880F90819370892B808304
:102F4000109288010C94140E0895FC01EE0FFF1FDF
:102F50008E0F9F1FFC01E95CFC4F6183408322833D
:102F60000895E7E3F3E093E0E139F90729F081837D
:102F7000608342833396F7CF08956EE170E087E374
:102F800093E00C945518882311F0FA0101C0FB015D
:102F900009940F931F93CF93FB01C281CC2309F4B3
:102FA0004AC08C010E946F298272F801E25CFC45E4
:102FB000E431F10508F042C0E558FF4F0C94BC35F0
:102FC0000E9412173AC042E357E16CE177E104C076
:102FD0004CE157E162E377E10E94C3172EC04FE452
:102FE00057E168E477E1F8CF48E457E16FE477E12F
:102FF000F3CF40E657E166E577E1EECF46E557E1EE
:1030000060E677E1E9CF4AE757E16AE677E1E4CFA6
:103010004AE657E16AE777E1DFCF4EE857E164E837
:1030200077E1DACF44E857E16EE877E1D5CF81E088
:103030000E94981702C0C1E001C0C0E08C2FCF9160
:103040001F910F91089525B1342F3095232335B169
:10305000432B3FB7F894FC01680F791FE617F70779
:1030600089F0819198E045B9000000C087FF25B93B
:10307000880F000000C000C000C025B900C09A95AC
:1030800091F7ECCF3FBF089524B1242B24B99B01C5
:10309000220F331F620F731F0E94231887EC90E0EA
:1030A0000197F1F700C00000089540E10C94441826
:1030B0000C943F0553985B9A52985A9A89B183FBB6
:1030C000882780F94A9902C090E001C092E0892BDC
:1030D00080930E020895E0910E02EE0FEE0FE09342
:1030E0000E0249B143FB882780F990E049B142FBC9
:1030F000222720F930E042FF02C022E030E0822B9C
:10310000932B8E2B80930E028F70E82FF0E0EE53FE
:10311000FE4F908180910D02890F80930D028430C3
:103120004CF080910C028F5F80930C0261E080E094
:103130000E94581880910D028D3F4CF480910C0232
:10314000815080930C0260E080E00E9458188091CA
:103150000D02837887FF03C081508C6F8F5F80934F
:103160000D020895EF92FF920F931F93CF93DF9379
:10317000EC017B0164E670E088E70E94741D8C011D
:10318000EC0EFD1ECE15DF0561F017FD0AC0FE0135
:10319000849164E670E00E94CB1D8C012196892BFE
:1031A00089F30E944F1EC801DF91CF911F910F91AB
:1031B000FF90EF900895E1E9F3E080E092E0DF0115
:1031C0009C011D9221503040E1F7F0939605E09369
:1031D00095058FEF9FEF90933B0280933A020895FD
:1031E0000E9449058093360280FD02C080E801C03C
:1031F00080E2809335020E946E1D6DE070E08BE6E8
:1032000093E00E94B218892B11F080E0089580911C
:10321000360263E070E081FD03C088E693E002C0FF
:1032200085E693E00E94B218892B79F76DE070E093
:1032300088E593E00E94B218892B39F70E94442C4C
:10324000DC01CB01805A9541AF4FBF4F8093910570
:1032500090939205A0939305B09394050E94DB1878
:1032600081E08093390280933802109237020895EA
:103270002091350236E0839FC0011124629F800DAA
:10328000911D1124811522E0920714F080E090E056
:103290008F569C4F909396058093950508952091A5
:1032A0009505309196052B58334040913502642F97
:1032B00070E0C9010E947535481B463010F4240F98
:1032C000311D211582E0380710F020E030E02F5644
:1032D0003C4F30939605209395050895CF93DF9347
:1032E0008A3011F481E003C08D3029F480E0DF9151
:1032F000CF910C94E419C62F682F80919505909179
:10330000960526E0FC01AFE0B2E001900D922A950F
:10331000E1F7613E30F026E0FC0111922A95E9F7D1
:103320000AC0F6E06F9FB001112468587C4F46E058
:1033300050E00E944036C11135C0C0919505D09132
:10334000960546E050E0BE018FE092E00E944936CB
:10335000892BB1F1C159D3409E0185E0369527955F
:103360008A95E1F781E090E0AC0102C0440F551F5F
:103370002A95E2F720913A0230913B02242B352B1B
:10338000269645E0D695C7954A95E1F702C0880F85
:10339000991FCA95E2F7822B932B90933B0280935F
:1033A0003A020EC0E0919505F09196059F012A5FC3
:1033B0003F4F2E173F0709F2808180958193F9CF07
:1033C000DF91CF910C944F19CF93E82F2091950561
:1033D000309196052159334040913502642F70E0B9
:1033E000C9010E947535481B842FEE2359F066E011
:1033F0000E946935C82FC150B0F060E080E20E94A1
:103400006E19F9CFA901480F511D4115524018F00E
:1034100080E020E030E0280F311D2F563C4F3093E4
:10342000960520939505CF9108951F93CF93DF9331
:10343000EC01162FFE018491882329F0612F0E9450
:103440006E192196F7CFDF91CF911F9108950E94B9
:10345000151A81E00C94E4190E94442CDC01CB0184
:10346000805A9541AF4FBF4F80939105909392053D
:10347000A0939305B09394058091380281110BC0FD
:1034800062E070E086E593E00E94B218892B19F49F
:1034900081E0809338028091380208956F927F9284
:1034A0008F929F92AF92BF92CF92DF92EF92FF9254
:1034B0000F931F93CF93DF9320913A0230913B02F9
:1034C0002115310509F4D4C0809137028111D0C093
:1034D00061E070E0082F10E03B01082E02C0660C8E
:1034E000771C0A94E2F7A30142235323452B11F4DE
:1034F0008F5FF0CF90913602980165E0220F331F65
:103500006A95E1F790FD12C08295880F80768093CE
:103510009001220F232F221F330B3195209393010B
:10352000815E809391011092940112C045E036951E
:1035300027954A95E1F7220F220F220F2093900141
:1035400010929301295F2093910183E0809394016D
:1035500024E630E047E050E06EE871E088E70E9442
:10356000FB1D892B09F084C08091360280FD23C0A9
:10357000A80195E0440F551F9A95E1F74F565C4F0F
:1035800004E610E020E230E060E488E70E94221EBA
:10359000892B09F06DC00E942C1AE301C095D095CB
:1035A00080913A0290913B02C823D923D0933B02E9
:1035B000C0933A025DC080E2E5E1F2E0DF011D92D6
:1035C0008A95E9F785E0000F111F8A95E1F7A6EDCE
:1035D000B1E042ED51E0992493942D91EA01899153
:1035E000AE01B801680F711D6F567C4F30E02B5E45
:1035F0003D4FF90197E07F01E21AF30AA92C01C0BF
:10360000AA0CEA94EAF77B01B12CE70189917E01CB
:103610008A21892E8B18D82DD770CD2E0D2E000C17
:10362000DD08C82F01C0CC0FDA95EAF7D194C19418
:10363000D108D7E0CD22DD2401C08695CA94EAF7EF
:103640008C2BD0808D298083B39488E0B812DDCF95
:10365000915031969F3F79F6C1E0AA3DBC0709F031
:10366000BCCF04E610E020E230E045E152E08CCF30
:10367000DF91CF911F910F91FF90EF90DF90CF904E
:10368000BF90AF909F908F907F906F9008958091A2
:103690003802882369F062E070E084E593E00E94DC
:1036A000B218892B19F080913802089510923802CF
:1036B0009091380281E089270895CF92DF92EF92AE
:1036C000FF9280913902882321F160E080E00E941E
:1036D00038190E944B050E944E1A809138028823A7
:1036E000C1F0C0909105D0909205E0909305F090C4
:1036F00094050E94442CDC01CB018C199D09AE0974
:10370000BF09B7FD06C0FF90EF90DF90CF900C94FB
:10371000471BFF90EF90DF90CF9008950F931F937A
:10372000CF93DF93C62FD42F122FFC0182818823E1
:10373000C9F060933E020E94382C90933D02809322
:103740003C0280E28C0F883008F057C0C77081E0DF
:1037500001C0880FCA95EAF7DF91CF911F910F91B1
:103760000C94292180913E02681330C080913C0264
:1037700090913D020E94502C883C910538F500E262
:103780000D0FCD17B9F080E28C0F883040F4C77070
:1037900081E001C0880FCA95EAF70E943021083005
:1037A00028F581E09D2F977001C0880F9A95EAF760
:1037B0000E942921812F0E9416210830F0F4D77031
:1037C00081E001C0880FDA95EAF70AC080E28C0F29
:1037D000883098F4C77081E001C0880FCA95EAF775
:1037E000DF91CF911F910F910C943021812FDF91A8
:1037F000CF911F910F910C941621DF91CF911F91C2
:103800000F9108959C01CB01233F4CE53407F9F05B
:1038100078F4283DFCE53F07B9F0293D4CE5340735
:1038200011F1273D3C4531F526E241EE61EE1EC027
:10383000253FFCE53F0799F070F0263F3C45D1F469
:1038400027E245EE66EE12C027E245EE0EC026E204
:1038500041EE60EE0BC027E245EE64EE07C026E2C3
:1038600041EE62EE03C028E241E065EE0E948E1B4D
:1038700080E00895FC018281882319F010923E02B5
:10388000089581E00895CF93DF93EC01FB018281DD
:10389000882309F41FC1C230FCE5DF0708F41BC10F
:1038A000C6319CE5D90738F09E012A5F3C45293096
:1038B000310508F010C10E948D2A90939C058093D9
:1038C0009B05C031ECE5DE0709F4C3C008F041C038
:1038D000C8308CE5D80709F49AC0F0F4C430ECE5A0
:1038E000DE0709F487C068F4C2308CE5D80709F414
:1038F00077C0C330DC4509F0E3C080919B0582604E
:1039000076C0C630ECE5DE0709F46EC008F07BC077
:1039100080919B0588606BC0CC308CE5D80709F49A
:1039200085C068F4CA30ECE5DE0709F474C008F01D
:1039300079C00E948C2380919B05806858C0CE304E
:103940008CE5D80709F476C008F07FC080919B050C
:103950008BC0CB3FECE5DE0709F44FC018F5C3314F
:103960008CE5D80709F47DC078F4C131ECE5DE07B9
:1039700009F473C0C231DC4509F0A2C00E948C2357
:1039800080919B058F7733C0C5318CE5D80709F44A
:1039900072C008F486C0CA3FDC4509F091C080912E
:1039A0009C053EC0CF3FFCE5DF0709F45FC058F43B
:1039B000CD3F9CE5D90709F444C008F43FC080918D
:1039C0009C0582602DC0C130FDE5DF0709F475C09C
:1039D00008F45DC0C230DD4509F072C080E06EC001
:1039E00080919B05816003C080919B0580618093DD
:1039F0009B0566C080919B0511C080919C058260EB
:103A000080939C055DC080919B058062F0CF809182
:103A10009B058064ECCF80919B0588608460E7CF34
:103A20008160EECF80919B058E7FE1CF80919B05D9
:103A30008D7FDDCF80919B05877FD9CF80919C05BD
:103A400018C080919C058D7FDBCF80919B058F7E78
:103A5000CECF80919B058F7DCACF80919B058F7BB8
:103A6000C6CF80919B05877F8B7FC1CF80919C05BE
:103A70008D7F8E7FC5CF80919B0582FB222720F909
:103A800091E0922790FB82F990FB83F9B0CF80916F
:103A90009C05982F909591708E7F892B90FB81F9D2
:103AA000AFCF0E948C2380919B0587FB222720F9B2
:103AB00091E0922790FB87F99ACF81E00E941C2B1E
:103AC00080919B0590919C050E949E2A0E948C23C8
:103AD00080E001C081E0DF91CF9108951092B9009C
:103AE0008CE08093B8000895EF92FF920F931F939C
:103AF000CF93DF93182FEB011092BC0084EA8093E0
:103B0000BC000E94382C7C018091BC0087FD0EC057
:103B1000CF3F8FEFD807C1F30E94382C8E199F0931
:103B20008C179D0788F38EEF9FEF2EC08091B90010
:103B3000887F883041F08091B900887F803119F00A
:103B40008FEF9FEF21C01093BB0084E88093BC00EF
:103B50000E94382C8C018091BC0087FD0CC0CF3FA7
:103B60008FEFD807C1F30E94382C801B910B8C1764
:103B70009D0788F3D8CF8091B900887F883111F0F4
:103B80008034F1F680E090E0DF91CF911F910F91AA
:103B9000FF90EF9008950F931F93CF93DF93EB0166
:103BA0008093BB0084E88093BC000E94382C8C0179
:103BB0008091BC0087FD0EC0CF3F8FEFD807C1F3C7
:103BC0000E94382C801B910B8C179D0788F38EEF79
:103BD0009FEF0CC02091B900287F81E090E028324F
:103BE00011F480E090E0919581959109DF91CF915A
:103BF0001F910F910895CF92DF92EF92FF920F9352
:103C00001F93CF93DF936B018A017901B9010E9461
:103C1000741DE6010C0D1D1DC017D10761F424E9C8
:103C20002093BC00DF91CF911F910F91FF90EF90F7
:103C3000DF90CF90089597FDF2CFB70189910E9450
:103C4000CB1DEACFCF92DF92EF92FF920F931F939B
:103C5000CF93DF93C62F6A017901B8010E94741DCA
:103C600097FD11C0B8018C2F0E94CB1DE601EC0C12
:103C7000FD1CCE15DF0539F097FD05C0B80189910F
:103C80000E94CB1DF6CF24E92093BC00DF91CF9199
:103C90001F910F91FF90EF90DF90CF90089584E9EE
:103CA0008093BC000895909344028093430208954A
:103CB000E0914302F0914402309721F00190F081AD
:103CC000E02D099480E00895E0914302F0914402D0
:103CD000309799F02091A101222359F020919B0562
:103CE00027FF07C0DC012C9111962C93119725E03A
:103CF0002C930280F381E02D0994089520914102D4
:103D0000309142022817390771F090934202809354
:103D10004102E0914302F0914402309721F0068085
:103D2000F781E02D0994089520913F0230914002DF
:103D30002817390771F09093400280933F02E09179
:103D40004302F0914402309721F00084F185E02D88
:103D50000994089585B7806885BF85B7806885BF59
:103D6000089508950C94B11E0C94B21E0C94B11ECB
:103D70000C94B11E0E94AA1E0E94B61E0C94B41E82
:103D800081E008950E942F2C0E942A0980E00E9461
:103D9000F0180E94342D0C94B81E9F92AF92BF92DF
:103DA000CF92DF92EF92FF920F931F93CF93DF9307
:103DB000CDB7DEB72A970FB6F894DEBF0FBECDBFE2
:103DC0000E947A09C82E0E94C01E811111C08FEF77
:103DD00089838A831B820E94382C8160782F9D837F
:103DE0008C8349815A816B818D810E946C1F40C0F8
:103DF00086E4A82E82E0B82E00E010E0902E802FFE
:103E00000E941A09E82EF501D1905F01D82631F4FD
:103E10000F5F1F4F0630110589F7D9CF8091D0026F
:103E200081FD0E94200980E0FF24F3949D2D9F21B5
:103E3000D1F08E839F82EF2081E009F480E08887B3
:103E40000E94382C8160782F9A8789874E815F8104
:103E500068858A850E946C1FF801EA5BFD4F8081AE
:103E6000F826F08205C08F5FFF0C8730F9F6D0CFBF
:103E70000E945D1BC1100E942C1A0E94581E909136
:103E800045028917B9F00E94581E809345022A9670
:103E90000FB6F894DEBF0FBECDBFDF91CF911F915B
:103EA0000F91FF90EF90DF90CF90BF90AF909F90D9
:103EB0000C94E6052A960FB6F894DEBF0FBECDBF70
:103EC000DF91CF911F910F91FF90EF90DF90CF90F6
:103ED000BF90AF909F900895CF93DF93CDB7DEB79B
:103EE0002B970FB6F894DEBF0FBECDBF4F83588718
:103EF00069877A878B87DE01119686E0FD01119232
:103F00008A95E9F785E0FE01379601900D928A9532
:103F1000E1F749815A816B817C818D819E810E946C
:103F20005C262B960FB6F894DEBF0FBECDBFDF9197
:103F3000CF910895FC01808191810E9430290895DC
:103F4000882309F413C1682F8238C1F40E94581ED7
:103F500081FD0CC169E380919501909196010E94C9
:103F6000872B0E94BD292FEF81EE94E021508040E5
:103F70009040E1F700C0000069E319C08338F9F40C
:103F80000E94581E80FDF2C063E5809195019091DA
:103F900096010E94872B0E94BD292FEF81EE94E0AD
:103FA000215080409040E1F700C0000063E580911F
:103FB0009501909196010E94922B0C94BD29843812
:103FC000C1F40E94581E82FDD1C067E48091950122
:103FD000909196010E94872B0E94BD292FEF81EEC0
:103FE00094E0215080409040E1F700C0000067E479
:103FF000DECF8CEF860F813A38F480919501909155
:1040000096010E94872BD9CF80E2860F883048F432
:10401000677081E001C0880F6A95EAF70E947229F3
:10402000CCCF8BE5860F833070F4653A29F0663A81
:1040300031F083E890E005C081E890E002C082E8BA
:1040400090E00C947E1E88E5860F873108F08EC0C4
:10405000683A09F445C0693A09F445C06A3A09F476
:1040600045C06B3A09F445C06C3A09F445C06B3B56
:1040700009F445C06C3B09F445C06D3A09F445C0EC
:10408000603B09F445C06E3A09F445C06F3A09F443
:1040900045C0613B09F445C0623B09F445C0633B40
:1040A00009F445C0643B09F445C0653B09F445C0CB
:1040B000663B09F445C0673B09F445C0683B09F419
:1040C00045C0693B09F445C06D3B09F445C06E3BF2
:1040D00009F445C06A3B09F445C080E090E044C063
:1040E00082EE90E041C089EE90E03EC08AEE90E022
:1040F0003BC085EB90E038C086EB90E035C083EBA9
:1041000090E032C084EB90E02FC087EB90E02CC0B1
:104110008CEC90E029C08DEC90E026C083E891E023
:1041200023C08AE891E020C082E991E01DC084E9C3
:1041300091E01AC081E292E017C083E292E014C0DD
:1041400084E292E011C085E292E00EC086E292E045
:104150000BC087E292E008C08FE690E005C080E7E0
:1041600090E002C08AE292E00C94941E08958823A5
:1041700009F45BC0682F823879F40E94581E81FFD1
:1041800054C069E380919501909196010E94872B1C
:104190000E94BD2969E310C08338B1F40E94581E03
:1041A00080FF43C063E580919501909196010E9444
:1041B000872B0E94BD2963E580919501909196011E
:1041C0000E94922B0C94BD29843879F40E94581EC9
:1041D00082FF2BC067E480919501909196010E9427
:1041E000872B0E94BD2967E4E7CF8CEF860F813AC9
:1041F00018F380E2860F883048F4677081E001C0D0
:10420000880F6A95EAF70E947829DCCF8BE5860F44
:10421000833020F480E090E00C947E1E685A673171
:1042200020F480E090E00C94941E0895CF93C82F62
:104230000E94A01FC93349F42FEF87EE93E021506D
:1042400080409040E1F700C000008C2FCF910C948B
:10425000B720882321F00E9472290C94BD2908956B
:10426000882321F00E9478290C94BD290895CF92CB
:10427000DF92EF92FF920F931F93CF93DF937C0116
:10428000062FC72FFC01158112951F70D281D11105
:104290000E948F290E946829882379F0DD2369F024
:1042A00080E2800F883048F082E00E94072A0E9456
:1042B000682991E0D82ED92601C0D12CCC2EC294E9
:1042C0008FE0C8228C2D90E0FC01E157FF4F0C9449
:1042D000BC358C2F807FCF70882311F0C295C07FB2
:1042E000DD2399F0CC2309F482C180E2800F88306D
:1042F00010F0011104C08C2F0E94722903C08C2F72
:104300000E9482290E94BD2972C1802F0E94B7207D
:10431000CC2309F491C180E2800F883010F00111A4
:1043200004C08C2F0E94782903C08C2F0E948829FA
:104330000E94BD2981C18C2F807FCF70803211F007
:10434000C295C07F002319F00130C9F022C0DD23DF
:1043500071F0112341F0113031F40E94A2298C2B0D
:104360000E94AA2969C10E94A2298C2B1DC0112379
:1043700019F0113009F460C10E94B32925C0DD2372
:1043800021F0163008F058C10EC0153008F054C1A5
:104390001BC0DD2361F0112331F0F701858180FF1F
:1043A00026C18F7085838C2F0E94292145C111233E
:1043B00059F0093309F02CC1FFEF27EE83E0F150EB
:1043C00020408040E1F722C18C2F0E94302134C16F
:1043D0008C2F86958695837019F0813061F02CC101
:1043E000DD2321F0802F9C2F937002C080E090E0AD
:1043F0000E947E1E29C1DD2321F0802F9C2F937007
:1044000002C080E090E00E94941E1EC18C2F837039
:1044100009F045C0D11114C1402F4295469547700F
:10442000440F440F602F6F70862F90E0A0E0B0E043
:10443000042E04C0880F991FAA1FBB1F0A94D2F72D
:1044400004FF10C00FE010E020E030E004C0000FD7
:10445000111F221F331F4A95D2F700951095209502
:10446000309503C000E010E09801C695C695C37072
:10447000BC01CD01602B712B822B932BC23049F0F4
:1044800058F4C13019F00E94AD27DAC00E949B2772
:10449000D7C00E94BF27D4C00E949927D1C0DD2376
:1044A00019F08C2F817001C08695882309F4C8C04B
:1044B000402F429546954770440F440F602F6F7010
:1044C000862F90E0A0E0B0E0042E04C0880F991F72
:1044D000AA1FBB1F0A94D2F704FF10C00FE010E020
:1044E00020E030E004C0000F111F221F331F4A9547
:1044F000D2F7009510952095309503C000E010E0AC
:104500009801C695C695C370BC01CD01602B712B77
:10451000822B932BC23049F058F4C13019F00E941D
:1045200072288EC00E9460288BC00E94842888C098
:104530000E94D32785C0CF70DD2339F08C2F0E94D5
:10454000F927802F0E9429217BC0802F0E943021D3
:104550008C2F0E941A2874C0023F01F128F4003FFA
:1045600041F0013FA1F03FC0033FF9F0043F39F1B2
:104570003AC0DD2341F0153008F05EC08C2F8F71FA
:104580000E943F2859C0163008F056C0F7CFDD23EF
:1045900039F08C2F8F710E94F9274EC0DD23C9F3AB
:1045A0008C2F8F710E941A2847C0DD2329F08C2F91
:1045B0008F710E94E42740C00E94DF273DC0DD23A9
:1045C00049F0CF718C2F0E94F92763E08C2F0E9455
:1045D000F22932C081E00E94072A123068F182E09D
:1045E0000E94072A29C0DD2331F0112391F2802F88
:1045F0000E94A01F21C0112399F2093349F49FEFB3
:10460000E7EEF3E09150E040F040E1F700C0000039
:10461000802F0E94B72010C04C2F4F70602FC70111
:104620000E9470060E940A270FC04C2F4F70602F07
:10463000C7010E94730608C088EF8C0D843020F4F7
:104640000E94581E0E94E605DD20C9F00E946429E0
:1046500080FD15C0F70112820E945E290E94F92791
:10466000C7010E9448230E945E29DF91CF911F91CC
:104670000F91FF90EF90DF90CF900C941A28DF916C
:10468000CF911F910F91FF90EF90DF90CF90089501
:104690000F931F93CF93DF93EC01988189812B8136
:1046A0003C81232B31F08F3F31F481E09F3F19F49F
:1046B00003C081E001C080E080FD13C0CE010E94F4
:1046C000FF05882371F0688179818A810E943B29E6
:1046D0008C010E9496280E948727B801CE010E9473
:1046E0003721DF91CF911F910F9108950E948F295B
:1046F0000E949F290E94BD2980E090E00E947E1EBA
:1047000080E090E00C94941E809195019091960128
:104710000E949D2B0C9476230E947F290C94842365
:10472000E92FE295EF704E2F50E0FA013297EE300C
:10473000F105B0F4E156FF4F0C94BC35803F91F089
:1047400018F4883E68F40EC0843F51F40BC0883ED4
:1047500048F0813F29F406C093FB882780F908952B
:1047600080E0089581E008950E9430290E949023FE
:104770000895CF93DF9300D000D01F92CDB7DEB75E
:104780000F900F900F900F900F90DF91CF910895A1
:10479000CF93DF9300D000D000D0CDB7DEB7269600
:1047A0000FB6F894DEBF0FBECDBFDF91CF91089555
:1047B0001F93CF93DF93C0914D0216E080914E027C
:1047C000C81799F0D0E01C9FF0011D9FF00D112437
:1047D000E15BFD4F408151816281738184819581CC
:1047E0000E94C8232196C770E9CFDF91CF911F9116
:1047F000089540917F0250918002609181027091F2
:10480000820280918302909184020C94C823CF93FA
:104810008091840282958F7009F05FC0809181023F
:10482000882309F45AC080914D02B0914E027091D4
:104830007F02A0918002409182025091830291E018
:104840007F3F09F090E0692FC6E08B1709F445C05F
:104850004115510521F0AF3F21F020E003C021E0D8
:1048600001C0262F90E020FD35C0C89FF001C99FF0
:10487000F00D1124E15BFD4F21812A132BC0208113
:10488000271328C02281211125C0238134812417B8
:10489000350710F421503109241B350B283C310514
:1048A000C8F4209184022F7020612093840226E0B6
:1048B000289FF001299FF00D1124EC5AFD4F8081B3
:1048C0008F70806180838FE792E00E944823CF91B0
:1048D0000C94D82301968770B8CFCF910895AF92EA
:1048E000BF92CF92DF92EF92FF920F931F93CF93DD
:1048F000DF93CDB7DEB761970FB6F894DEBF0FBE7A
:10490000CDBF8C0185E0F801DE011D9601900D926E
:104910008A95E1F7D8014C9111965C911197129606
:10492000EC9030917F0260918002809182029091A0
:104930008302009731F06F3F31F421E03F3F19F4DB
:1049400003C021E001C020E0B22FB170BB2E20FDDA
:1049500060C1F801C380D480A0908102AA2009F42C
:10496000EEC020918402C816D90628F0D601A81BF3
:10497000B90BCD0104C0809590958C0D9D1DFF2431
:10498000F394883C910580F0F12C207F09F09CC0C5
:104990007C2DD98AC88A6E2D89890E94B9238FE718
:1049A00092E00E9448232DC1822F807F09F054C0DD
:1049B000561314C0431312C0FE2CE1100FC02F7009
:1049C0002061209384020E94F9238FE792E00E94E5
:1049D000482380918402F80185835CC1CD2831F0A1
:1049E0005F3F31F481E04F3F19F403C081E001C023
:1049F00080E080FD03C081E08E2502C080E090E071
:104A0000F82FF170FF2E80FF1CC080914D02209185
:104A10004E0236E0821709F41AC190E0389FF00187
:104A2000399FF00D1124E15BFD4F6181561306C0E3
:104A30006081461303C06281E61203C0019687704D
:104A4000E9CFFE2CEE2009F425C18091840281601B
:104A500080938402F12C1EC1561309C0431307C072
:104A6000E11005C080918402F8018583A4C04D87C0
:104A70005E878D859E850E94B423882379F1EE2080
:104A800069F120918402822F82958F7090E00297C5
:104A900074F080917F029091800298878F831986AD
:104AA000DB86CA862C87CE0107960E94482386E0C3
:104AB000F801AFE7B2E001900D928A95E1F70E940C
:104AC00007240E94F9230DC0561771F04D875E87A9
:104AD0008D859E850E94B42381111AC0C8010E9451
:104AE0004823FF24F394D6C04313F0CFE110EECF58
:104AF00080918402F8018583C8010E94482386E0E2
:104B0000EFE7F2E0DF011D928A95E9F7FA2CC2C0C7
:104B1000EE2021F320918402822F82958F7090E005
:104B200002972CF280917F02909180029A83898370
:104B30001B82DD82CC822E83CE010196B6CFC816B1
:104B4000D90628F0F601E81BF90BCF0104C08095C7
:104B500090958C0D9D1D883C910548F0F12C7C2D85
:104B6000D98AC88A6E2D89890E94B9234AC0FE2C31
:104B7000EE2009F4B3CF561333C0431331C0209154
:104B8000840220FD24C0822F82958F70482F50E030
:104B900041155105E1F0D80115962C9315974F302A
:104BA000510549F08F5F982F9295907F822F8F70DB
:104BB000892B15968C93C8010E94482386E0F80142
:104BC000AFE7B2E001900D928A95E1F73DC086E033
:104BD000F801AFE7B2E001900D928A95E1F75AC073
:104BE0004D875E878D859E850E94B42381115FCF9E
:104BF00080918402816080938402C8010E944823CE
:104C000049C0EFE7F2E086E0DF011D928A95E9F7FF
:104C10001BC0EE2009F462CF4D875E878D859E858F
:104C20000E94B423F82E882309F458CF86E0F801B7
:104C3000AFE7B2E001900D928A95E1F78FE792E03D
:104C40000E949A1F0E9407240E94F92323C04D87C7
:104C50005E878D859E850E943029292F22952F7091
:104C6000223028F49F7039F0811105C00BC0243028
:104C700028F49F7049F4805E883020F0C8010E94BB
:104C80004823BF2CFB2C06C0D80115969C91907F21
:104C900091F7F8CF8F2D61960FB6F894DEBF0FBE57
:104CA000CDBFDF91CF911F910F91FF90EF90DF90DB
:104CB000CF90BF90AF9008951F93CF93DF93CDB760
:104CC000DEB72C970FB6F894DEBF0FBECDBF4F8373
:104CD000588769877A878B879C87CE0107960E94C1
:104CE0006F248823D1F09F8188852A853B85232BDB
:104CF00031F08F3F31F481E09F3F19F403C081E030
:104D000001C080E080FD47C04F81588569857A8564
:104D10008B859C850E94C8233EC086E0FE013796A5
:104D2000DE01119601900D928A95E1F7FF81E885E9
:104D30006A857B856115710531F0EF3F31F481E0C3
:104D4000FF3F19F403C081E001C080E080FD23C073
:104D500020914E0230E0C901019687709927409159
:104D60004D0250E084179507F1F1F983EA837D83C2
:104D70006C8396E0929FD001939FB00D1124A15BAC
:104D8000BD4FFE01319601900D929A95E1F7809307
:104D90004E020E94D82316E080914D0290914E025F
:104DA000891771F1189FC0011124815B9D4F0E94EA
:104DB0006F24882329F1E0914D021E9FF0011124F8
:104DC000E15BFD4F408151816281738184819581D6
:104DD0000E94C82380914D0290E001968770992728
:104DE00080934D02D9CF0E948C2310924E021092D4
:104DF0004D02EFE7F2E086E0DF011D928A95E9F7C8
:104E00002C960FB6F894DEBF0FBECDBFDF91CF91C9
:104E10001F910895EF92FF920F931F93CF93DF930B
:104E20008C01892B09F46CC0F12CEE24E394E80189
:104E30002196F8018491843740F4843008F051C001
:104E4000813081F0823019F15BC0853709F444C0AC
:104E5000A8F19CE7980F903708F052C08F770E9416
:104E6000B72041C00E5F1F4FFE01849190E2980F62
:104E7000983050F48770FE2D01C0FF0F8A95EAF735
:104E80008F2F0E94922914C00E94A01F2DC00E5F78
:104E90001F4FFE01849190E2980F983060F4877064
:104EA000FE2D01C0FF0F8A95EAF78F2F0E949829E7
:104EB0000E94BD2919C00E94B72016C00E5F1F4F67
:104EC000FE01C491CC2381F08FE99FE00197F1F7B7
:104ED00000C00000C150F6CF0E5F1F4FFE01F490DE
:104EE00003C00E94A01F8E018F2D882309F49FCF3D
:104EF000EFE9FFE03197F1F700C000008150F5CFF6
:104F0000DF91CF911F910F91FF90EF900895089539
:104F100008950C9488270C9489270E948B2760930E
:104F2000A7027093A8028093A9029093AA020C94FE
:104F300076230C948D270F931F930091A702109155
:104F4000A8022091A9023091AA02602B712B822B1A
:104F5000932B1F910F910C948D270F931F9300910A
:104F6000A7021091A8022091A9023091AA02602301
:104F70007123822393231F910F910C948D270F93FC
:104F80001F930091A7021091A8022091A9023091CD
:104F9000AA0260277127822793271F910F910C94F3
:104FA0008D270C9488270E94D1276093A3027093C9
:104FB000A4028093A5029093A6020C94762360E04D
:104FC00070E0CB010C94D3270F931F9341E050E086
:104FD00060E070E08A019B0104C0000F111F221FD6
:104FE000331F8A95D2F7C901B8011F910F910C9414
:104FF000D3270F931F9341E050E060E070E004C0BE
:10500000440F551F661F771F8A95D2F78091A30220
:105010009091A402A091A502B091A6028A019B01E1
:10502000082B192B2A2B3B2BC901B8011F910F917B
:105030000C94D3270F931F9341E050E060E070E0A1
:1050400004C0440F551F661F771F8A95D2F74095FD
:105050005095609570958091A3029091A402A091C3
:10506000A502B091A6028A019B01082319232A23D5
:105070003B23C901B8011F910F910C94D3270F93C3
:105080001F9341E050E060E070E004C0440F551F02
:10509000661F771F8A95D2F78091A3029091A40290
:1050A000A091A502B091A6028A019B0108271927A9
:1050B0002A273B27C901B8011F910F910C94D327D0
:1050C0000F931F930091A3021091A4022091A502B7
:1050D0003091A602602B712B822B932B1F910F9185
:1050E0000C94D3270F931F930091A3021091A40255
:1050F0002091A5023091A60260237123822393237D
:105100001F910F910C94D3270F931F930091A3022B
:105110001091A4022091A5023091A6026027712768
:10512000822793271F910F910C94D327089527E08E
:10513000929F800D1124E82FE695E695E6958770FD
:1051400051E001C0550F8A95EAF785E0E89FF0012C
:105150001124EB57FD4F20E030E070E04081CB019F
:10516000022E02C0969587950A94E2F78170819588
:1051700084278523842781932F5F3F4F2530310576
:1051800069F7089527E0929F800D1124682F669596
:1051900066956695982F977085E0689FB0011124F9
:1051A00040E050E080E0FB01E40FF51FEB57FD4FBE
:1051B000208130E0092E02C0369527950A94E2F747
:1051C00021703327042E01C0220F0A94EAF7822BA4
:1051D0004F5F5F4F4530510531F70895BF92CF9231
:1051E000DF92EF92FF920F931F93CF93DF938C0187
:1051F000C090A302D090A402E090A502F090A60275
:105200008091A7029091A802A091A902B091AA0250
:10521000C82AD92AEA2AFB2ACFE1D0E0D701C60161
:105220000C2E04C0B695A795979587950A94D2F74A
:1052300080FD04C0219790F7B12C07C0BC2EB801A7
:105240008C2F0E948F060197A9F38B2DDF91CF91B0
:105250001F910F91FF90EF90DF90CF90BF90089536
:10526000CF93DF93EC010E94EE28BE010E948F06CF
:10527000DF91CF9108951F93CF93DF93EB0190912E
:105280004C02992321F0CB010E94302913C08823BE
:1052900049F0CB010E94EE28182F682FCE010E9402
:1052A000972804C0CB010E94C228182FBE01812F6D
:1052B0000E948F06DF91CF911F9108958091AB02DC
:1052C00085958595859508958091AB0287700895A1
:1052D0009091AB02977081E009F480E0089580918D
:1052E000CF0208959091CF02892B8093CF02089529
:1052F00080959091CF0289238093CF0208951092D8
:10530000CF0208959091CE02892B8093CE0208950A
:1053100080959091CE0289238093CE0208951092B9
:10532000CE0208959091CD02892B8093CD020895ED
:1053300080959091CD0289238093CD02089510929B
:10534000CD0208958091AC02089508950C94A5298A
:105350000C94A6299091AC02981721F08093AC028E
:105360000C94A82908958091AC02882329F010920A
:10537000AC0280E00C94A8290895E0919501F09189
:1053800096018091CF028083E0919501F091960182
:1053900090818091CE02892B8083E0919501F091DC
:1053A000960190818091CD02892B80838091AC02FF
:1053B000882381F0E0919501F09196019081892BED
:1053C000808380919501909196010E94212B8111FB
:1053D0000E94B32980919501909196010C94641ECE
:1053E0000C94A52998E0899F90011124262B2093E5
:1053F000AB020E94F9278091AB0285958595859532
:105400000C94F0291092AB0280E00C94F0292091CA
:10541000AB02809582238093AB02982F977079F42A
:1054200030E0482F082E000C550B2417350739F0B3
:105430008595859585950E941A280C94022A0895D1
:10544000CF92DF92EF92FF926C01EE24FF24C11401
:10545000D104E104F10421F0C701B60120E101C04B
:1054600020E0C72ED82EE92EFF24C114D104E10478
:10547000F10419F0285FC701B6016B017C0154E00B
:10548000F694E794D794C7945A95D1F7C114D104F0
:10549000E104F10419F02C5FC701B6016B017C0136
:1054A00042E0F694E794D794C7944A95D1F7C11493
:1054B000D104E104F10419F02E5FC701B601DC014B
:1054C000CB01B695A79597958795892B8A2B8B2B22
:1054D00009F02F5F822FFF90EF90DF90CF9008951B
:1054E00080E090E00E94773621E08C3E9E4F09F0EC
:1054F00020E0822F089582E090E00C946F36682FB0
:1055000082E090E00C948D3683E090E00C946F364E
:10551000682F83E090E00C948D36CF9384E090E088
:105520000E946F36C82F81E290E00E946F362C2FC8
:1055300030E0A901582BCA01CF910895CF93C92F0C
:10554000682F84E090E00E948D366C2F81E290E01D
:10555000CF910C948D36AB01BC018FE090E00C94A0
:105560009F36AB01BC0183E190E00C949F3660E074
:1055700070E0CB010C94B12A60E070E0CB010E9496
:10558000AB2A0C94B72A6CEE7EEF80E090E00E948C
:10559000AB3660E082E090E00E948D3660E083E010
:1055A00090E00E948D361092A7021092A8021092ED
:1055B000A9021092AA0260E084E090E00E948D3679
:1055C00060E081E290E00E948D3660E085E090E04E
:1055D0000E948D3660E086E090E00E948D366FEF8D
:1055E00087E090E00E948D3640E050E0BA0188E00C
:1055F00090E00E949F3660E08DE090E00E948D3642
:1056000040E050E0BA0188E190E00E949F3660E0FF
:1056100087E190E00E948D3640E050E0BA018CE1D5
:1056200090E00E949F3660E080E290E00E948D361C
:105630000C94BC2A0C94C32A682F8EE090E00C9442
:105640008D36FC0132968091A101882331F0809142
:105650009B0587FF02C09EE101C096E080E091506B
:1056600028F021912223D9F38F5FF9CF08959C016F
:10567000FC0132969FEF80E04191461789F09F3FF1
:1056800019F4411101C0982F8F5F8630A9F79F3F11
:1056900039F0F901E90FF11D97FDFA95628308953C
:1056A00008959C012A5F3F4FFC014281461301C0CF
:1056B0001282019682179307B9F70895262F26952F
:1056C000269526952E3168F4FC01E20FF11D6770D6
:1056D00021E030E001C0220F6A95EAF78281282B91
:1056E00022830895262F2695269526952E3170F42F
:1056F000FC01E20FF11D677021E030E001C0220FD4
:105700006A95EAF7209582812823228308952091C3
:10571000A101222329F020919B0527FD0C945E2BEB
:105720000C94372B2091A101222329F020919B0575
:1057300027FD0C94722B0C94512B2091A101FC019C
:105740003296222331F080919B0587FF02C08EE1C3
:1057500001C086E0DF011D928A95E9F7089508955A
:105760000C94AF2B0C94AF2BCF930E94B22B0E94C2
:105770007A090E94B02BC0E08C2F0E941A09811177
:1057800004C0CF5FC630C1F701C081E0CF9108955A
:105790000C94AF2B0C94C82B0E94CA2B8091A105AE
:1057A000843049F11092D10220E488E190E00FB6F4
:1057B000F894A895809360000FBE2093600080E06D
:1057C0000E94E6050E94CA2B83B7817F846083BF55
:1057D00083B7816083BF7894889583B78E7F83BFBA
:1057E0000FB6F894A895809160008861809360005E
:1057F000109260000FBE08950C94AF2B0E948C2372
:105800000E94581E0E94E6050C94FC2B1F920F92DA
:105810000FB60F9211248F939F93AF93BF938091F4
:10582000D102811113C08091970590919805A091A4
:105830009905B0919A054196A11DB11D80939705D8
:1058400090939805A0939905B0939A05BF91AF9155
:105850009F918F910F900FBE0F901F90189582E02F
:1058600084BD93E095BD9AEF97BD80936E00089537
:105870002FB7F8948091970590919805A09199057C
:10588000B0919A052FBF08952FB7F89460919705AE
:10589000709198058091990590919A052FBF089570
:1058A000CF92DF92EF92FF920F931F932FB7F8944E
:1058B00040919705509198056091990570919A05CE
:1058C0002FBF6A017B01EE24FF248C0120E030E031
:1058D000C016D106E206F30610F4415051099A01B0
:1058E000281B390BC9011F910F91FF90EF90DF909A
:1058F000CF900895CF92DF92EF92FF920F931F9374
:105900002FB7F894C0909705D0909805E09099052E
:10591000F0909A052FBF97018601061B170B280BE5
:10592000390BC616D706E806F90618F0C901B80102
:1059300006C0C901B80161507109810991091F911F
:105940000F91FF90EF90DF90CF90089578941F9281
:105950000F920FB60F9211248F939F93AF93BF9323
:105960008091970590919805A0919905B0919A051D
:105970000196A11DB11D8093970590939805A09362
:105980009905B0939A05BF91AF919F918F910F9018
:105990000FBE0F901F90189581E08093E00080E289
:1059A0008093D8001092C9008FE19EE40197F1F72F
:1059B00000C0000087E090EBDC018093AA05909383
:1059C000AB05A093AC05B093AD059CE088E10FB6A4
:1059D000F894A895809360000FBE90936000FFCF6D
:1059E000CF92DF92EF92FF920F931F93CF93C0E07D
:1059F000E82EF12C8C2F0E941A0900E010E0C82E2E
:105A0000D12CC601002E02C0959587950A94E2F725
:105A100080FD06C00F5F1F4F0730110591F70AC0C8
:105A2000602F7C2F80E00E947406E816F90691F73B
:105A300081E004C0CF5FC630E9F680E0CF911F91CE
:105A40000F91FF90EF90DF90CF900895CF93C82FE4
:105A50008CE20E94F02C882321F08C2FCF910C94A3
:105A6000F02C80E0CF910895CF930E94702A81118D
:105A700002C00E941A2BC5E6C15049F00E947A0963
:105A80008FE39CE90197F1F700C00000F5CF89E2B0
:105A90000E94262D811120C18AE20E94262D8111AB
:105AA0000E941A2B85E00E94262D81110E94CC2C89
:105AB0000E947B2A8093D00287E00E94262D8823B3
:105AC000A9F18BE10E94262D882351F08091D0020C
:105AD00081FB222720F991E0922790FB81F90EC0EB
