:100000000C9491050C94D8050C94D8050C94D80543
:100010000C94D8050C94D8050C94D8050C94D805EC
:100020000C94D8050C94D8050C94482E0C941A2FD7
:100030000C9456250C94D8050C94D8050C94D8052E
:100040000C94D8050C94D8050C94D8050C94D805BC
:100050000C94D8050C94CA250C94D8050C94D8059A
:100060000C94D8050C94D8050C94D8050C94D8059C
:100070000C94D8050C94D8050C94D8050C94D8058C
:100080000C94D8050C94D8050C94D8050C94D8057C
:100090000C94D8050C94D8050C94D8050C94D8056C
:1000A0000C94D8050C94D8050C94D805B110B41054
:1000B000BC10C110C610CB10D010D510DA10DF1054
:1000C000E410E910EB10EE10F110F410F710FA1034
:1000D000FC100111731A731AA51AA51AF21A101B33
:1000E000681C681C521BE71BF81BF81B581C681C7B
:1000F000681C611CEE1CEE1C001D001DF71C001D81
:10010000001D001DEE1CEE1CFC1C001D001DFC1C37
:10011000872FAE2FA630AE2FA630FA2F1D30A63077
:100120007430833020202020202020005343524C64
:100130004B0020202020202020004341505320004D
:100140002020202020004E4C434B2000556E64653B
:100150006600464E00004C657427730A6275696C30
:10016000640A736F6D652D0A7468696E670A746F2F
:100170002D0A6765742D0A686572210046004700E4
:100180004800A80000000000000049004A004B00A1
:1001900053415400550056004C004D004E005F0086
:1001A0006000610057000000000000005C005D007E
:1001B0005E00000000005200000059005A005B0081
:1001C0000000500051004F00000062006300580022
:1001D0004600470048002A000000000000004900D7
:1001E0004A004B0001005400550056004C004D00E1
:1001F0004E005F006000610057000000000000003A
:100200005C005D005E00000000005200000059002C
:100210005A005B000000500051004F0000006200D7
:100220006300580000047F3F1F6432146432147866
:100230003C1E1E140A052223252628292A2C2D2F90
:100240003032333536383A3B3D3E404243454749EC
:100250004A4C4E5051535557595A5C5E6062646621
:1002600068696B6D6F71737577797B7D7F8183852D
:1002700087898A8C8E90929496989A9C9E9FA1A32F
:10028000A5A7A8AAACAEAFB1B3B4B6B8B9BBBCBE53
:10029000BFC1C2C3C5C6C7C9CACBCCCDCED0D1D2CF
:1002A000D2D3D4D5D6D7D7D8D9D9DADADBDBDBDCD1
:1002B000DCDCDCDCDDDDDDDDDCDCDCDCDCDBDBDB7D
:1002C000DADAD9D9D8D7D7D6D5D4D3D2D2D1D0CEDD
:1002D000CDCCCBCAC9C7C6C5C3C2C1BFBEBCBBB9E2
:1002E000B8B6B4B3B1AFAEACAAA8A7A5A3A19F9E60
:1002F0009C9A98969492908E8C8A89878583817F28
:100300007D7B79777573716F6D6B69686664626008
:100310005E5C5A5957555351504E4C4A49474543D4
:1003200042403E3D3B3A3836353332302F2D2C2A71
:10033000292826252322FFAA7F554000010101011B
:100340000101010101020202020202020202030390
:100350000303030303030404040404040405050560
:100360000505060606060607070707070808080822
:10037000090909090A0A0A0B0B0B0C0C0C0D0D0DCF
:100380000E0E0E0F0F0F1010111111121213131465
:1003900014151516161717181819191A1A1B1B1CDD
:1003A0001D1D1E1E1F202021222223242425262637
:1003B000272829292A2B2C2D2D2E2F30313232336C
:1003C0003435363738393A3B3C3D3E3F4041424375
:1003D0004445464748494A4C4D4E4F505153545559
:1003E0005658595A5B5D5E5F616264656668696B09
:1003F0006C6D6F7072737577787A7B7D7E80828387
:100400008587888A8C8E8F91939596989A9C9EA0CA
:10041000A2A3A5A7A9ABADAFB1B3B5B7BABCBEC0D7
:10042000C2C4C6C9CBCDCFD1D4D6D8DBDDDFE2E4A0
:10043000E7E9EBEEF0F3F5F8FAFDFF00AE00AF00F0
:10044000DA02818FD9F1DB40A4A62EAF00A0C00054
:10045000A1C800AED580A81FD300408D1420000095
:1004600000000000003E5B4F5B3E003E6B4F6B3E6A
:10047000001C3E7C3E1C00183C7E3C18001C577D36
:10048000571C001C5E7F5E1C0000183C180000FF1B
:10049000E7C3E7FF00001824180000FFE7DBE7FFD1
:1004A0000030483A060E00262979292600407F05AB
:1004B000050700407F05253F005A3CE73C5A007F76
:1004C0003E1C1C0800081C1C3E7F0014227F2214C6
:1004D000005F5F005F5F0006097F017F00006689A3
:1004E000956A0060606060600094A2FFA2940008BA
:1004F000047E04080010207E20100008082A1C0832
:1005000000081C2A0808001E10101010000C1E0CF9
:100510001E0C0030383E383000060E3E0E0600003D
:10052000000000000000005F00000000070007005E
:1005300000147F147F1400242A7F2A12002313083A
:10054000646200364956205000000807030000008E
:100550001C224100000041221C00002A1C7F1C2A92
:100560000008083E080800008070300000080808F5
:100570000808000000606000002010080402003E2F
:100580005149453E0000427F4000007249494946BA
:10059000002141494D33001814127F1000274545B2
:1005A0004539003C4A4949310041211109070036CB
:1005B0004949493600464949291E000000140000F7
:1005C00000004034000000000814224100141414FC
:1005D0001414000041221408000201590906003ECB
:1005E000415D594E007C1211127C007F4949493609
:1005F000003E41414122007F4141413E007F494947
:100600004941007F09090901003E41415173007FC2
:100610000808087F0000417F4100002040413F0161
:10062000007F08142241007F40404040007F021CB0
:10063000027F007F0408107F003E4141413E007F61
:1006400009090906003E4151215E007F091929462A
:100650000026494949320003017F0103003F404021
:10066000403F001F2040201F003F4038403F0063B4
:1006700014081463000304780403006159494D43CE
:1006800000007F4141410002040810200000414168
:10069000417F00040201020400404040404000004D
:1006A00003070800002054547840007F2844443851
:1006B00000384444442800384444287F00385454C7
:1006C00054180000087E09020018A4A49C78007F3A
:1006D000080404780000447D4000002040403D00B4
:1006E000007F102844000000417F4000007C047817
:1006F0000478007C0804047800384444443800FC42
:10070000182424180018242418FC007C0804040869
:100710000048545454240004043F4424003C404006
:10072000207C001C2040201C003C4030403C004409
:1007300028102844004C9090907C004464544C4411
:10074000000008364100000000770000000041363C
:100750000800000201020402003C2623263C00009F
:100760000000000000404040F0F8F8FF38FFF8F8C3
:100770003FF8F8FF38FFF8F8F04040400000000074
:10078000000080C0C0C0800000C0C08000000080A9
:10079000C0C000C0C0000080C0C00000000000C099
:1007A000C0C0C0C000C0C0000000000000000000C9
:1007B0000000000000000000000000000000000039
:1007C0000000000000000000000000000000000029
:1007D0000000000000000000000000000000C0F069
:1007E000F8FC3E1E06010000007F4141417F007F72
:1007F0004141417F000080C0E07E5B4F5BFEC00056
:1008000000C000DCD7DEDEDED7DC00C00000000068
:1008100000000000000000000000000000000000D8
:100820000000000000494949FFFFFFFFE0DFBFBFB4
:1008300000BFBFDFE0FFFFFFFF49494900000000A4
:10084000001F3F6060E0BF1F007F7F071E381E074C
:100850007F7F007F7F0E1F3B716000000000007FE4
:100860007F0C0C0C007E7E007F7E0303007F7E03E6
:10087000037E7E03037F7E000F3E703C063C703E8D
:100880000F00327B49493F7E007F7E0303001E3FFD
:1008900069696F2600000000000000000000030FDF
:1008A0001F3F3C7870600000007F4141417F007F26
:1008B0004141417F00307B7F7830202030787F3B82
:1008C0000003000F7F0F0F0F7F0F000300000000D9
:1008D0000000000000000000000000000000000018
:1008E0000000000000010101070F0F7F0F7F0F0FB5
:1008F0007E0F0F7F0F7F0F0F070101010000000027
:1009000000000000000001010000000000000000E5
:1009100000000000000000000000000000000000D7
:1009200000000000000000000000000000000000C7
:1009300000000000000000000000000000000000B7
:1009400000000000000000000000000000000000A7
:100950000000000000000000000000000000000097
:100960000000000000000000000000000000000087
:100970000000000000000000000000000000000077
:100980000000000000000000000000000000000067
:100990000000000000000000000000000000000453
:1009A000033000000014034D006900670069007403
:1009B0000065005000610064000000140341006CF9
:1009C00000650062006C0061007A00650072000042
:1009D000000403090409023B00020100A0FA090413
:1009E0000000010301010009211101000122400062
:1009F0000705810308000A09040100010300000043
:100A000009211101000122C0000705820320000A0C
:100A10001201100100000008EDFE606001000102FB
:100A2000030105010902A10185020901A1000509CF
:100A3000190129051500250195057501810295010A
:100A4000750381010501093009311581257F950262
:100A50007508810609381581257F9501750881067D
:100A6000050C0A38021581257F950175088106C09D
:100A7000C005010980A10185031A81002A8300169F
:100A80000100260300950175108100C0050C0901C5
:100A9000A10185041A01002A9C02160100269C026D
:100AA000950175108100C005010906A101850505A4
:100AB0000719E029E7150025019508750181020550
:100AC00007190029EF1500250195F0750181020530
:100AD0000819012905950575019102950175039184
:100AE00001C005010906A101050719E029E7150064
:100AF0002501950875018102950175088101050799
:100B0000190029FF150026FF0095067508810005CC
:100B10000819012905950575019102950175039143
:100B200001C011241FBECFEFDAE0DEBFCDBF04B697
:100B300003FE27C08091C3049091C404A091C50412
:100B4000B091C6048730904BA740B04BD1F41092BF
:100B5000C3041092C4041092C5041092C60414BEBB
:100B600084B7877F84BF0FB6F894A8958091600002
:100B7000886180936000109260000FBEE0E0F8E3AF
:100B8000099511E0A0E0B1E0EEE1F3E602C00590C6
:100B90000D92A437B107D9F724E0A4E7B1E001C072
:100BA0001D92A33CB207E1F70E94752B0C948D3186
:100BB0000C940000811107C0611102C089EA01C0D4
:100BC0008AEA0C94201A089583E00895CF9360E098
:100BD00086E591E00E94FD1260911D0270911E0257
:100BE00080911F02909120020E947023882331F08F
:100BF000813041F460E082E591E007C060E085E586
:100C000091E003C060E08CE491E00E940F130E9429
:100C10004017C82F80FD03C080E491E002C086E445
:100C200091E060E00E94FD12C1FD03C082E391E00B
:100C300002C08AE391E060E00E94FD12C2FD03C0A1
:100C400084E291E002C08CE291E060E0CF910C94EC
:100C5000FD1281E0089581E008950C942B061F9306
:100C6000CF93DF9300D000D01F92CDB7DEB749837A
:100C70005A836B832091C60189819A81211112C008
:100C8000662349F00E943E22182F682F89819A819D
:100C90000E94E72103C00E941222182F69817A81E5
:100CA000812F04C00E943E2269817A810F900F90AB
:100CB0000F900F900F90DF91CF911F910C9404072C
:100CC000FC01408151816281738184810C942F06E3
:100CD0000E94C023811102C00E946A240E94421116
:100CE0000C94BE090E9453110C94BA0908950C94F7
:100CF000760681E008950C947906CF93C82F0E9460
:100D000077068C2F0E947B06CF91089508950E944C
:100D1000DC1C0E9486062FEF84E39CE0215080407B
:100D20009040E1F700C000000C94F0250F931F9352
:100D3000CF93DF93EC010E9460068C01BE010E94FC
:100D40002D06882309F456C0BE01C8010E94EA148A
:100D5000882309F44FC0BE01C8010E942B158823C7
:100D600009F448C0BE01C8010E949A10882309F402
:100D700041C08A81882371F001158CE5180739F08C
:100D80000E3D8CE5180731F40E946A2433C00E949E
:100D9000870630C006311C4531F50E94BF22982FCE
:100DA0008A812091170130911801882379F09A7A6D
:100DB00081E009F480E080937401911102C069E23E
:100DC00001C065E3C9010E94D7240AC08091740163
:100DD000811102C069E201C065E3C9010E94E224F9
:100DE0000E940D2307C0CE01DF91CF911F910F917B
:100DF0000C94290680E0DF91CF911F910F91089507
:100E000080E090E0089508952AE2829FC0011124B5
:100E1000FC0127E0729FE00DF11D1124E60FF11D8A
:100E2000EE0FFF1FE458FE4F859194910895880FAF
:100E3000991FFC01EC5DFD4F859194910895CF932E
:100E4000DF930E9404070E94D908EC0181159045A8
:100E500008F041C0C11580E4D80708F028C1C83E99
:100E6000D10510F5C03ED10508F09FC1C83AD105A3
:100E700078F4C53AD10508F0A2C0C130D10509F413
:100E800094C108F445C1C430D10508F08EC140C1F9
:100E9000CF3BD10508F49EC0C03CD10508F438C151
:100EA000CE01805C9109F5C0C11590E2D90758F4D4
:100EB000C11521E0D20708F078C1C03FD10508F480
:100EC00027C1D06572C1C11580E3D80708F0E5C01D
:100ED000CE019F70DEC0C11595E5D90708F043C06B
:100EE000C11524E5D20708F0F9C0C11582E5D8077D
:100EF00008F5C11591E5D90708F0DCC0CE0174E012
:100F0000969587957A95E1F783709C2F937021E0F1
:100F100030E002C0220F331F9A95E2F73C68382B6D
:100F2000CF70C695C69580E2C89FE0011124C22B00
:100F3000D32B3BC19E01237033278C2F869586953A
:100F4000C115D34508F0BBC0C1E0D0E002C0CC0F52
:100F5000DD1F2A95E2F720E2829FC0011124C82BF1
:100F6000D92BDC6822C1C11529E5D207A0F4C1152F
:100F700088E5D80708F0B7C0C11596E5D90708F08D
:100F8000C7C08C2F0E946D098F71C82FD0E0DC2F55
:100F9000CC27D0620AC1C1152AE5D20708F4A8C03F
:100FA000CE0190568115904208F0B2C08D2F8F71FE
:100FB0000E946D09DD27D0628F71D82BF6C0C53A2B
:100FC000D10509F4A8C0C63AD10509F0A7C0C2E806
:100FD000D0E4EBC0C83AD10509F4A3C0C93AD105A1
:100FE00009F4A2C0CA3AD10509F4A1C0CB3AD1058F
:100FF00009F4A0C0CC3AD10509F49FC0CB3BD10580
:1010000009F49EC0CC3BD10509F49DC0CD3AD10571
:1010100009F49CC0C03BD10509F49BC0CE3AD10570
:1010200009F49AC0CF3AD10509F499C0C13BD10562
:1010300009F498C0C23BD10509F497C0C33BD10560
:1010400009F496C0C43BD10509F495C0C53BD10550
:1010500009F494C0C63BD10509F493C0C73BD10540
:1010600009F492C0C83BD10509F491C0C93BD10530
:1010700009F490C0CD3BD10509F48FC0CE3BD1051A
:1010800009F48EC0CA3BD10509F48DC0C0E0D4E498
:101090008CC00E941707EC0188C0CE019927D3FFAE
:1010A00003C0EC01D86C81C0EC01D06C7EC0DF7055
:1010B000D06A7BC0DC2FCC27C16FD06A76C0C1E07C
:1010C000D0E002C0CC0FDD1F2A95E2F720E2829F1C
:1010D000C0011124C82BD92BDA6867C0DC2FCC27BC
:1010E000C46FD06A62C0DC2FCC27C06FD06A5DC0ED
:1010F0008C2F8F700E946D0994E0D695C7959A95B4
:10110000E1F7CF70D0E0DC2FCC27D069C82B4DC0E1
:10111000C0E0D0E04AC0C1E8D0E447C0C3E8D0E4B2
:1011200044C0C2EED4E441C0C9EED4E43EC0CAEE2D
:10113000D4E43BC0C5EBD4E438C0C6EBD4E435C03E
:10114000C3EBD4E432C0C4EBD4E42FC0C7EBD4E487
:101150002CC0CCECD4E429C0CDECD4E426C0C3E848
:10116000D5E423C0CAE8D5E420C0C2E9D5E41DC057
:10117000C4E9D5E41AC0C1E2D6E417C0C3E2D6E49C
:1011800014C0C4E2D6E411C0C5E2D6E40EC0C6E283
:10119000D6E40BC0C7E2D6E408C0CFE6D4E405C06D
:1011A000C0E7D4E402C0CAE2D6E4CE01DF91CF9119
:1011B00008958238910569F1B0F48133910509F4FD
:1011C0006DC048F48932910509F463C08A329105F3
:1011D00009F469C008958533910509F455C0893330
:1011E0009105B9F00895833E910569F138F4803E88
:1011F0009105B1F0823E910509F10895863E910571
:10120000A9F1873E9105B9F1843E910509F064C0CA
:1012100023C02091B40420FD4FC021FD4DC008958E
:101220008091B40480FD44C08091B50480FF44C027
:101230008091B40484FD42C083EE4DC08091B4041B
:1012400082FF38C0F5CF8091B40482FD33C0809115
:10125000B50480FD31C0ECCF8091B50481FF32C070
:101260008091B40484FD2AC087EE35C08091B40417
:1012700083FF26C0F5CF8091B40483FD21C0809107
:10128000B50481FD1FC0ECCF8091B40485FD1CC066
:101290001DC08091B40485FD19C016C08091B404AE
:1012A00086FD16C017C08091B40486FD13C010C01F
:1012B00089E311C082EE0FC080EE0DC080E00BC04C
:1012C00086EE09C084EE07C089E205C085E303C04D
:1012D0008AE201C081E390E008959091B40492FF06
:1012E0000DC0282F2871283019F4877F846006C02C
:1012F000282F2471243011F48B7F886093FF0DC058
:10130000282F2871283119F4877E846106C0282F80
:101310002471243111F48B7E88612091B50420FF63
:101320000DC0382F3871383019F4877F816006C0BE
:10133000382F3171313011F48E7F886021FF0DC05C
:10134000282F2871283119F4877E816106C0282F43
:101350002171213111F48E7E886194FD877E08957C
:10136000E82FF0E0E158FD4F808108950895089539
:101370000C94B7090C94B8090C94B7090C94BC09E7
:10138000CF93DF93A1E3B1E047E351E061E070E088
:101390008D91E82FE295EF70F0E021A18F70EB01C5
:1013A00002C0CC0FDD1F8A95E2F7CE019C2F9095ED
:1013B000922391A392A1892B82A34A175B0741F73D
:1013C000AAE2B1E041E351E061E070E08D91E82FE5
:1013D000E295EF70F0E021A18F70EB0102C0CC0F1D
:1013E000DD1F8A95E2F7CE019C2F9095922391A361
:1013F00092A1892B82A34A175B0741F7E9E7F2E044
:10140000AFE7B2E08FE792E011921D928E179F072F
:10141000D9F786E00E949E0ADF91CF910C9468066E
:101420005F926F927F928F929F92AF92BF92CF9274
:10143000DF92EF92FF920F931F93CF93DF9361E3BD
:1014400071E0A9E7B2E02FE7A22E22E0B22E612CD4
:1014500001E010E06D015C901C92EB018991BE01EE
:10146000E82FE295EF70F0E021A18F70A80102C093
:10147000440F551F8A95E2F7CA01242B21A322A10C
:10148000942E9094292122A350EA5A95F1F79AE2DA
:10149000E92E91E0F92E40E050E0E70189907E01CD
:1014A000282D22952F7030E0E90128A17C9030E0B2
:1014B000D82DDF7002C035952795DA95E2F720FD2B
:1014C00008C0302F042E01C0330F0A94EAF7232FEF
:1014D00001C020E027292C934F5F5F4F4730510513
:1014E000E1F691A1992291A292A1892B82A3119652
:1014F00081E0F6019081951101C080E0682AAA166A
:10150000BB0609F0A7CF262D46E06FE772E089E71A
:1015100092E00E949F0A0E947206862DDF91CF9171
:101520001F910F91FF90EF90DF90CF90BF90AF9001
:101530009F908F907F906F905F9008950895FF9295
:101540000F931F93CF93DF938C01F62ED72FC42FC9
:10155000222349F081E0809377010E9488259093AF
:10156000760180937501809177018823C1F0809185
:101570007501909176010E94A025069780F0EF2DCD
:10158000FD2FD8014C2F50E0CD01801B910B84170B
:1015900095071CF48D918193F7CF10927701DF911D
:1015A000CF911F910F91FF900895EF92FF920F93AB
:1015B0001F93CF93DF93F62E472FE82FF0E07111A2
:1015C00006C0E55CFC4F6491762F862F72C0272FF2
:1015D00030E0E55CFC4FE4910E2F10E056E0659F93
:1015E000C0011124CFEFD0E0BE010E94F4305BEACD
:1015F0005603C001579F900D11248F0D911D8F0D23
:10160000911D982F990F890F7E01E21AF30AE09E2F
:10161000D001E19EB00DF09EB00D1124489FA001B5
:101620001124452F55277E01E41AF50AE09EA001FA
:10163000E19E500DF09E500D11247E01E81AF10834
:10164000E29EC001E39E900DF29E900D1124892F21
:101650009927C81BD90BC09FC001C19F900DD09F77
:10166000900D11246230710591F048F461157105F7
:10167000E1F061307105A9F48B2F752F19C064302A
:10168000710561F038F06630710579F00AC0892F74
:101690007B2F0EC08E2F7B2FE52F0AC08E2F792F28
:1016A00002C0852F7E2FEB2F03C08B2F7E2FE92FBB
:1016B0006E2FDF91CF911F910F91FF90EF900895C2
:1016C0000895CF93DF93762FE901682F842F0E942E
:1016D000D50A798368838A83DF91CF9108958091B9
:1016E0008502282F269530E02115310519F48170E7
:1016F000826005C02532310524F0817088648093B2
:101700008502089588E090E00C944D31CF92DF92ED
:10171000EF92FF926B017C010E946F0BB701A60153
:1017200088E090E0FF90EF90DF90CF900C946B31C9
:10173000E5E8F2E083E0808311828FEF8283838388
:10174000148260817181828193810C94860B8091D7
:10175000850280FF02C08695089580E008958091FB
:101760008902833018F48F5F80938902609185022B
:101770007091860280918702909188020C94860B6A
:1017800080918902882319F08150809389026091A9
:1017900085027091860280918702909188020C9454
:1017A000860B6091040170E08091850280FF0AC081
:1017B00080917C0123E0829FC001112486579D4FB8
:1017C0000C943D1180917B0190910301891780F762
:1017D000E82FF0E09F01220F331FE20FF31FE657BF
:1017E000FD4F1182108212828F5FF0CF909185029F
:1017F00090FF16C090917B0120910301921770F425
:10180000E92FF0E0DF01AA0FBB1FEA0FFB1FE6572D
:10181000FD4F8183608342839F5FF0CF0C94D10B97
:101820000895CF93DF9300D01F92CDB7DEB790918C
:10183000850290FF0AC09E012F5F3F4F0E94610BFF
:101840004B8169818A810E94F60B0F900F900F9057
:10185000DF91CF910895CF93DF93EC01EC81F0E01D
:10186000EA5CFD4F4491E5E8F2E0628181810E94EB
:10187000110C8C818F5F8C83DF91CF910895CF9372
:10188000DF93EC01E5E8F2E0438162818C810E9404
:10189000110C8C818F5F8C83DF91CF9108950F9312
:1018A0001F93CF93DF9300D01F92CDB7DEB78C018B
:1018B0008091780181110AC09E012F5F3F4F4FEF49
:1018C0006FEF0E94610B8A8180937801F801848117
:1018D000813051F028F0823061F4409178010AC0E3
:1018E0008091780140E007C06091780140E080E09D
:1018F00003C040E080E060E00E94F60BF8018481C4
:1019000090E0019663E070E00E94083184830F90BC
:101910000F900F90DF91CF911F910F910895AF928B
:10192000BF92CF92DF92EF92FF920F931F93CF93CC
:10193000DF9300D01F92CDB7DEB7182FF62E042FFD
:10194000E22E9091850290FF6DC0E92FE695AE2FB3
:10195000B0E0A95CBE4F8C91809384019E7F923051
:1019600061F49E012F5F3F4F812F0E94610B4B81DD
:1019700069818A810E94F60B43C0823019F400917C
:1019800088023EC0863019F41091860239C0893031
:10199000D9F38931A9F5E9518E2F8170D82EE695BA
:1019A000F0E0EA5CFC4FA590B490C12CBB246091A0
:1019B0000201C61618F52C2D30E0A29EC001A39E90
:1019C000900DB29E900D112470E00E94F430812F92
:1019D000D11002C0860F01C0861B90917B01290F98
:1019E000311DA901440F551F240F351F26573D4FA8
:1019F000402F6F2D0E94610BC394D9CF0E94D10B51
:101A000010938602F092870200938802EE2051F034
:101A10006091850270918602809187029091880280
:101A20000E94860B0F900F900F90DF91CF911F9126
:101A30000F91FF90EF90DF90CF90BF90AF900895FF
:101A4000E5E8F2E09181282F4381628188E0890FE7
:101A50000C948F0C81E00C94200DE5E8F2E091816C
:101A6000282F4381628188EF890F0C948F0C81E0CD
:101A70000C942D0DE5E8F2E0628128E0620F08F495
:101A80006FEF282F438181810C948F0C81E00C949F
:101A90003A0DE5E8F2E0628128E0621B08F460E0BC
:101AA000282F438181810C948F0C81E00C94490D87
:101AB000E5E8F2E0438128E0420F08F44FEF282FD9
:101AC000628181810C948F0C81E00C94580DE5E8C3
:101AD000F2E0438128E0421B08F440E0282F6281B5
:101AE00081810C948F0C81E00C94670D20E00C94A4
:101AF0008F0CFF920F931F93CF93DF93EC01F12C88
:101B00000FEF10E060910201F616F0F480917B0176
:101B10002F2D30E0280F311DC901880F991F280F84
:101B2000391F26573D4F70E0C8010E940831962F9B
:101B30008C814091880260918702F99E800D11246A
:101B40000E94610BF394DECF0E94D10B9A818C81AD
:101B500090FF02C08F5F01C081508C83DF91CF91D5
:101B60001F910F91FF900895AF92BF92CF92DF9295
:101B7000EF92FF920F931F93CF93DF93FC0182812B
:101B800080FF02C00FEF01C001E010E04AE0A42E88
:101B900080910201181708F043C080917B01C12E8B
:101BA000D12CE601C80FD11DCE01880F991FC80F97
:101BB000D91FC657DD4F198218821A8234E0E32EEE
:101BC000F12CB12C80917A018B0D8B302CF06A2D89
:101BD0000E94E630892F05C087FF03C09091020163
:101BE000890F082E000C990BC816D90691F4809124
:101BF00088028E9DA0018F9D500D1124559547950B
:101C0000559547959E0160918702809186020E94BA
:101C1000610BB00EF1E0EF1AF108A1F61F5FB8CF2B
:101C20000E94D10B80917A01013031F4811102C000
:101C300080910201815007C090E0019660910201FD
:101C400070E00E94083180937A01DF91CF911F915B
:101C50000F91FF90EF90DF90CF90BF90AF900895DD
:101C6000CF9380917B0190910301891770F4E82F45
:101C7000F0E09F01220F331FE20FF31FE657FD4FE5
:101C80001182108212828F5FF0CFC0E0609102015A
:101C9000C617C0F5EC2FF0E070E0CF010E940831CC
:101CA00020917B01820F20917901022E000C330BD1
:101CB00090E0E217F307CCF020910101022E000C16
:101CC000330B2E173F078CF09C01220F331F820F1E
:101CD000931F9C0126573D4F4091880260918702D7
:101CE000809186020E94610B0BC0FC01EE0FFF1F6A
:101CF0008E0F9F1FFC01E657FD4F1182108212824A
:101D0000CF5FC4CF0E94D10B209100018091790157
:101D1000820F8093790190910101920F90930101BC
:101D200019165CF4082E000C990B4091020150E04A
:101D300041505109841795071CF02195209300010B
:101D4000CF9108950F931F93CF93DF938C01FC01E4
:101D50008481958101968170992795838483C0E061
:101D6000D5E580910201C81700F580917B012C2FE9
:101D700030E0280F311DC901880F991F280F391F26
:101D800026573D4F4C2F4695F80184819581840F4D
:101D9000911D817040918802609187028D9F802DF6
:101DA00011240E94610BCF5FDCCFDF91CF911F9197
:101DB0000F910C94D10B0F931F93CF93DF93EC01F2
:101DC00000E010E080910201282F30E00217130795
:101DD00024F590917B019801290F311DA901440F31
:101DE000551F240F351F26573D4F869590E04C8197
:101DF000081719071CF4442331F002C0411103C035
:101E00004091880201C040E0609187028091860283
:101E10000E94610B0F5F1F4FD5CF0E94D10B8C81A9
:101E200090E00196817099278C83DF91CF911F916B
:101E30000F910895E5E8F2E080818E7F80836081D4
:101E40007181828193810E94860B109285012FEF10
:101E500080E792E0215080409040E1F700C0000010
:101E60000C94D10B60918502669570E04BE050E0D8
:101E700085E091E00E942B31892B19F481E0809359
:101E800085010E94882590937E0180937D010895AD
:101E90009091850290FF35C09170811102C09260CF
:101EA00006C0853210F0986402C0880F982B90937A
:101EB0008502662351F060918502709186028091BF
:101EC0008702909188020E94860B60918502669538
:101ED00070E04BE050E085E091E00E942B31892BCF
:101EE00019F01092850102C00E94320F81E08093A8
:101EF00080014091880260918702809186020C9453
:101F0000760D0895682F90918502969581E0890F4E
:101F1000853208F081E00C94480F81E00C94820F28
:101F2000682F9091850296958FEF890F09F484E2CE
:101F30000C94480F81E00C94900F61E00C94480FD2
:101F4000E5E8F2E080818160808386950C949D0FA6
:101F50008091850280FD0C941A0F0C94A00F60E014
:101F60000C94480F8091830181112EC00E94C023E0
:101F7000811104C00E946A240E94980B0E94820B67
:101F80006093850270938602809387029093880203
:101F90006E7F61F40E94980B0E94820B6093850211
:101FA0007093860280938702909388020E946F0B41
:101FB000109285018091850280FF03C086950E9462
:101FC000AF0F81E08093830108950F931F93CF9308
:101FD000DF9380918501882309F48CC0809184016E
:101FE000E0918502E695E81BE0937F01823049F499
:101FF000F0E0EE5CFD4FE491CE2FD0E00BE21CE070
:1020000049C0863049F4F0E0E15DFD4FE491CE2F08
:10201000D0E00FE31CE03EC0893051F4E695F0E0DB
:10202000E45DFD4FE491CE2FD0E009E71DE032C022
:102030008F3051F4E695F0E0E75DFD4FE491CE2F4F
:10204000D0E004EB1DE026C0853149F4F0E0EA5D04
:10205000FD4FE491CE2FD0E000E31EE01BC088319D
:1020600081F0833239F4E4E2F2E0C591D4910FE4D7
:102070001CE010C0843251F4C4EFD1E00BED1EE03F
:1020800009C0C8EED3E002EA1EE004C0C0EDD7E00C
:1020900000E61BE080918001882389F01092800186
:1020A0000E9488259E0120953095820F931F909362
:1020B0007E0180937D0110928201109281018091B6
:1020C0007D0190917E010E94A0258C179D0790F0C4
:1020D000E0917D01F0917E01CE0FDF1FD0937E0154
:1020E000C0937D018DE791E0F801DF91CF911F91C1
:1020F0000F910994DF91CF911F910F91089588233B
:1021000011F0FA0101C0FB010994CF93DF93C82FAE
:10211000D62F0E94A70B8C1740F00E94A70B8D179B
:1021200020F4DF91CF910C948D0F8C2FDF91CF9104
:102130000C949D0F0F931F93CF93FB01C281CC236F
:1021400009F463C08C010E94BF228272F801E25C34
:10215000FC45E431F10508F059C0EA5AFF4F0C94F0
:102160001C310E94A80F06C04AE95FE06DE87FE0DD
:102170000E947F10C0E04AC04DE85FE06AE97FE05E
:10218000F7CF47E35DE06AE27DE0F2CF4AE25DE04F
:1021900067E37DE0EDCF45E55DE066E47DE0E8CF17
:1021A00046E45DE065E57DE0E3CF43E75DE064E6BE
:1021B0007DE0DECF44E65DE063E77DE0D9CF40EC33
:1021C0005BE06FEA7BE0D4CF4FEA5BE060EC7BE062
:1021D000CFCF81E017C065E082E010C068E086E004
:1021E0000DC06EE089E00AC064E18FE007C067E1DE
:1021F00085E104C088E106C062E289E10E948510A1
:10220000B9CF83E20E949D0FB5CFC1E08C2FCF9153
:102210001F910F91089525B1342F3095232335B1A7
:10222000432B3FB7F894FC01680F791FE617F707B7
:1022300089F0819198E045B9000000C087FF25B979
:10224000880F000000C000C000C025B900C09A95EA
:1022500091F7ECCF3FBF089524B1242B24B99B0103
:10226000220F331F620F731F0E940B1187EC90E047
:102270000197F1F700C00000089540E10C942C1183
:102280000C94DA0553985B9A52985A9A89B183FB59
:10229000882780F94A9902C090E001C092E0892B1A
:1022A000809388010895E0918801EE0FEE0FE0938E
:1022B000880149B143FB882780F990E049B142FB8E
:1022C000222720F930E042FF02C022E030E0822BDA
:1022D000932B8E2B809388018F70E82FF0E0E45AC7
:1022E000FE4F908180918701890F80938701843010
:1022F0004CF0809186018F5F8093860161E080E0E1
:102300000E944011809187018D3F4CF4809186019D
:1023100081508093860160E080E00E9440118091AE
:102320008701837887FF03C081508C6F8F5F809314
:1023300087010895EF92FF920F931F93CF93DF933E
:10234000EC017B0164E670E088E70E945C168C017A
:10235000EC0EFD1ECE15DF0561F017FD0AC0FE0173
:10236000849164E670E00E94B3168C012196892B5B
:1023700089F30E943717C801DF91CF911F910F9108
:10238000FF90EF900895E8EAF2E080E092E0DF014C
:102390009C011D9221503040E1F7F093AD04E09391
:1023A000AC048FEF9FEF9093B5018093B401089533
:1023B0000E94E4058093B00180FD02C080E801C066
:1023C00080E28093AF010E9456166DE070E082E5D6
:1023D00094E00E949A11892B11F080E00895809179
:1023E000B00163E070E081FD03C08FE494E002C0BF
:1023F0008CE494E00E949A11892B79F76DE070E0EB
:102400008FE394E00E949A11892B39F70E9494255A
:10241000DC01CB01805A9541AF4FBF4F8093A80498
:102420009093A904A093AA04B093AB040E94C31193
:1024300081E08093B3018093B2011092B1010895BD
:102440002091AF0136E0839FC0011124629F800D6F
:10245000911D1124811522E0920714F080E090E094
:1024600088559D4F9093AD048093AC0408952091BE
:10247000AC043091AD04225A32404091AF01642F38
:1024800070E0C9010E94F430481B463010F4240F5C
:10249000311D211582E0380710F020E030E028558A
:1024A0003D4F3093AD042093AC040895CF93DF9358
:1024B0008A3011F481E003C08D3029F480E0DF918F
:1024C000CF910C94CC12C62F682F8091AC049091C0
:1024D000AD0426E0FC01A9E8B1E001900D922A9537
:1024E000E1F7613E30F026E0FC0111922A95E9F710
:1024F0000AC0F6E06F9FB0011124615A7B4F46E09D
:1025000050E00E942231C11135C0C091AC04D0917D
:10251000AD0446E050E0BE0189E891E00E94383108
:10252000892BB1F1C85AD2409E0185E03695279596
:102530008A95E1F781E090E0AC0102C0440F551F9D
:102540002A95E2F72091B4013091B501242B352B67
:10255000269645E0D695C7954A95E1F702C0880FC3
:10256000991FCA95E2F7822B932B9093B501809324
:10257000B4010EC0E091AC04F091AD049F012A5F5C
:102580003F4F2E173F0709F2808180958193F9CF45
:10259000DF91CF910C943712CF93E82F2091AC04A8
:1025A0003091AD04285A32404091AF01642F70E061
:1025B000C9010E94F430481B842FEE2359F066E0D5
:1025C0000E94DA30C82FC150B0F060E080E20E9473
:1025D0005612F9CFA901480F511D4115524018F06C
:1025E00080E020E030E0280F311D28553D4F30932A
:1025F000AD042093AC04CF9108951F93CF93DF9344
:10260000EC01162FFE018491882329F0612F0E948E
:1026100056122196F7CFDF91CF911F9108950E9416
:10262000FD1281E00C94CC120E949425DC01CB01B8
:10263000805A9541AF4FBF4F8093A8049093A9044F
:10264000A093AA04B093AB048091B20181110BC096
:1026500062E070E08DE394E00E949A11892B19F4F6
:1026600081E08093B2018091B20108956F927F92D0
:102670008F929F92AF92BF92CF92DF92EF92FF9292
:102680000F931F93CF93DF932091B4013091B50145
:102690002115310509F4D4C08091B1018111D0C058
:1026A00061E070E0082F10E03B01082E02C0660CCC
:1026B000771C0A94E2F7A30142235323452B11F41C
:1026C0008F5FF0CF9091B001980165E0220F331F2A
:1026D0006A95E1F790FD12C08295880F807680930D
:1026E0001201220F232F221F330B31952093150146
:1026F000815E809313011092160112C045E0369559
:1027000027954A95E1F7220F220F220F20931201FD
:1027100010921501295F2093130183E08093160125
:1027200024E630E047E050E060E171E088E70E9495
:10273000E316892B09F084C08091B00180FD23C08D
:10274000A80195E0440F551F9A95E1F748555D4F54
:1027500004E610E020E230E060E488E70E940A1717
:10276000892B09F06DC00E941413E301C095D09528
:102770008091B4019091B501C823D923D093B501BC
:10278000C093B4015DC080E2EFE8F1E0DF011D928B
:102790008A95E9F785E0000F111F8A95E1F7A0E718
:1027A000B1E04CE651E0992493942D91EA0189918E
:1027B000AE01B801680F711D68557D4F30E021579B
:1027C0003E4FF90197E07F01E21AF30AA92C01C0FC
:1027D000AA0CEA94EAF77B01B12CE70189917E010A
:1027E0008A21892E8B18D82DD770CD2E0D2E000C56
:1027F000DD08C82F01C0CC0FDA95EAF7D194C19457
:10280000D108D7E0CD22DD2401C08695CA94EAF72D
:102810008C2BD0808D298083B39488E0B812DDCFD3
:10282000915031969F3F79F6C1E0A437BC0709F07B
:10283000BCCF04E610E020E230E04FE851E08CCF5E
:10284000DF91CF911F910F91FF90EF90DF90CF908C
:10285000BF90AF909F908F907F906F9008958091E0
:10286000B201882369F062E070E08BE394E00E949B
:102870009A11892B19F08091B20108951092B2013A
:102880009091B20181E089270895CF92DF92EF9273
:10289000FF928091B301882321F160E080E00E94E3
:1028A00020120E94E6050E9436138091B20188230F
:1028B000C1F0C090A804D090A904E090AA04F090C0
:1028C000AB040E949425DC01CB018C199D09AE0953
:1028D000BF09B7FD06C0FF90EF90DF90CF900C943A
:1028E0002F14FF90EF90DF90CF9008950F931F93D8
:1028F000CF93DF93C62FD42F122FFC018281882320
:10290000C9F06093B8010E9488259093B701809325
:10291000B60180E28C0F883008F057C0C77081E0A4
:1029200001C0880FCA95EAF7DF91CF911F910F91EF
:102930000C94331A8091B801681330C08091B601AD
:102940009091B7010E94A025883C910538F500E2DE
:102950000D0FCD17B9F080E28C0F883040F4C770AE
:1029600081E001C0880FCA95EAF70E943A1A083040
:1029700028F581E09D2F977001C0880F9A95EAF79E
:102980000E94331A812F0E94201A0830F0F4D77069
:1029900081E001C0880FDA95EAF70AC080E28C0F67
:1029A000883098F4C77081E001C0880FCA95EAF7B3
:1029B000DF91CF911F910F910C943A1A812FDF91E3
:1029C000CF911F910F910C94201ADF91CF911F91FD
:1029D0000F9108959C01CB01233F4CE53407F9F09A
:1029E00078F4283DFCE53F07B9F0293D4CE5340774
:1029F00011F1273D3C4531F526E241EE61EE1EC066
:102A0000253FFCE53F0799F070F0263F3C45D1F4A7
:102A100027E245EE66EE12C027E245EE0EC026E242
:102A200041EE60EE0BC027E245EE64EE07C026E201
:102A300041EE62EE03C028E241E065EE0E947614AA
:102A400080E00895FC018281882319F01092B8017A
:102A5000089581E00895CF93DF93EC01FB0182811B
:102A6000882309F41FC1C230FCE5DF0708F41BC14D
:102A7000C6319CE5D90738F09E012A5F3C452930D4
:102A8000310508F010C10E94DD239093B5048093B6
:102A9000B404C031ECE5DE0709F4C3C008F041C05E
:102AA000C8308CE5D80709F49AC0F0F4C430ECE5DE
:102AB000DE0709F487C068F4C2308CE5D80709F452
:102AC00077C0C330DC4509F0E3C08091B404826074
:102AD00076C0C630ECE5DE0709F46EC008F07BC0B6
:102AE0008091B40488606BC0CC308CE5D80709F4C1
:102AF00085C068F4CA30ECE5DE0709F474C008F05C
:102B000079C00E94DC1C8091B404806858C0CE302B
:102B10008CE5D80709F476C008F07FC08091B40432
:102B20008BC0CB3FECE5DE0709F44FC018F5C3318D
:102B30008CE5D80709F47DC078F4C131ECE5DE07F7
:102B400009F473C0C231DC4509F0A2C00E94DC1C4C
:102B50008091B4048F7733C0C5318CE5D80709F470
:102B600072C008F486C0CA3FDC4509F091C080916C
:102B7000B5043EC0CF3FFCE5DF0709F45FC058F461
:102B8000CD3F9CE5D90709F444C008F43FC08091CB
:102B9000B50482602DC0C130FDE5DF0709F475C0C2
:102BA00008F45DC0C230DD4509F072C080E06EC03F
:102BB0008091B404816003C08091B40480618093EB
:102BC000B40466C08091B40411C08091B5048260E1
:102BD0008093B5045DC08091B4048062F0CF809191
:102BE000B4048064ECCF8091B40488608460E7CF43
:102BF0008160EECF8091B4048E7FE1CF8091B404E8
:102C00008D7FDDCF8091B404877FD9CF8091B504CB
:102C100018C08091B5048D7FDBCF8091B4048F7E86
:102C2000CECF8091B4048F7DCACF8091B4048F7BC6
:102C3000C6CF8091B404877F8B7FC1CF8091B504CC
:102C40008D7F8E7FC5CF8091B40482FB222720F92F
:102C500091E0922790FB82F990FB83F9B0CF8091AD
:102C6000B504982F909591708E7F892B90FB81F9F8
:102C7000AFCF0E94DC1C8091B40487FB222720F98F
:102C800091E0922790FB87F99ACF81E00E946C2413
:102C90008091B4049091B5040E94EE230E94DC1C44
:102CA00080E001C081E0DF91CF9108951092B900DA
:102CB0008CE08093B8000895EF92FF920F931F93DA
:102CC000CF93DF93182FEB011092BC0084EA80931E
:102CD000BC000E9488257C018091BC0087FD0EC04D
:102CE000CF3F8FEFD807C1F30E9488258E199F0927
:102CF0008C179D0788F38EEF9FEF2EC08091B9004F
:102D0000887F883041F08091B900887F803119F048
:102D10008FEF9FEF21C01093BB0084E88093BC002D
:102D20000E9488258C018091BC0087FD0CC0CF3F9C
:102D30008FEFD807C1F30E948825801B910B8C1759
:102D40009D0788F3D8CF8091B900887F883111F032
:102D50008034F1F680E090E0DF91CF911F910F91E8
:102D6000FF90EF9008950F931F93CF93DF93EB01A4
:102D70008093BB0084E88093BC000E9488258C016E
:102D80008091BC0087FD0EC0CF3F8FEFD807C1F305
:102D90000E948825801B910B8C179D0788F38EEF6E
:102DA0009FEF0CC02091B900287F81E090E028328D
:102DB00011F480E090E0919581959109DF91CF9198
:102DC0001F910F910895CF92DF92EF92FF920F9390
:102DD0001F93CF93DF936B018A017901B9010E94A0
:102DE0005C16E6010C0D1D1DC017D10761F424E926
:102DF0002093BC00DF91CF911F910F91FF90EF9036
:102E0000DF90CF90089597FDF2CFB70189910E948E
:102E1000B316EACFCF92DF92EF92FF920F931F93F8
:102E2000CF93DF93C62F6A017901B8010E945C1627
:102E300097FD11C0B8018C2F0E94B316E601EC0C6F
:102E4000FD1CCE15DF0539F097FD05C0B80189914D
:102E50000E94B316F6CF24E92093BC00DF91CF91F6
:102E60001F910F91FF90EF90DF90CF90089584E92C
:102E70008093BC0008959093BE018093BD01089596
:102E8000E091BD01F091BE01309721F00190F081F9
:102E9000E02D099480E00895E091BD01F091BE011C
:102EA000309799F020912901222359F02091B40400
:102EB00027FF07C0DC012C9111962C93119725E078
:102EC0002C930280F381E02D09940895E091BD01D7
:102ED000F091BE01309739F022E0DC012C930480A0
:102EE000F581E02D099408952091BB013091BC013A
:102EF0002817390771F09093BC018093BB01E091D2
:102F0000BD01F091BE01309721F00680F781E02DE0
:102F1000099408952091B9013091BA012817390711
:102F200071F09093BA018093B901E091BD01F091E5
:102F3000BE01309721F00084F185E02D09940895B9
:102F400085B7806885BF85B7806885BF0895089577
:102F50000C94A7170C94A8170C94A7170C94A717F8
:102F60000E94A0170E94AC170C94AA1781E0089544
:102F70000E947F250E94C00980E00E94D8110E9413
:102F800058260E94B20F0C94AE179F92AF92BF9238
:102F9000CF92DF92EF92FF920F931F93CF93DF9325
:102FA000CDB7DEB72A970FB6F894DEBF0FBECDBF00
:102FB0000E94100AC82E0E94B617811111C08FEF0F
:102FC00089838A831B820E9488258160782F9D8354
:102FD0008C8349815A816B818D810E94661840C023
:102FE00080ECA82E81E0B82E00E010E0902E802F1B
:102FF0000E94B009E82EF501D1905F01D82631F486
:103000000F5F1F4F0630110589F7D9CF80914A0213
:1030100081FD0E94B60980E0FF24F3949D2D9F213D
:10302000D1F08E839F82EF2081E009F480E08887D1
:103030000E9488258160782F9A8789874E815F81D9
:1030400068858A850E946618F801E054FE4F8081E9
:10305000F826F08205C08F5FFF0C8730F9F6D0CFDD
:103060000E944514C1100E9414130E940C290E9452
:1030700040179091BF018917B9F00E9440178093C3
:10308000BF012A960FB6F894DEBF0FBECDBFDF9109
:10309000CF911F910F91FF90EF90DF90CF90BF9055
:1030A000AF909F900C947D062A960FB6F894DEBFE1
:1030B0000FBECDBFDF91CF911F910F91FF90EF9089
:1030C000DF90CF90BF90AF909F900895CF93DF9304
:1030D000CDB7DEB72B970FB6F894DEBF0FBECDBFCE
:1030E0004F83588769877A878B87DE01119686E040
:1030F000FD0111928A95E9F785E0FE01379601906E
:103100000D928A95E1F749815A816B817C818D818D
:103110009E810E94AC1F2B960FB6F894DEBF0FBEA7
:10312000CDBFDF91CF910895FC01808191810E94F4
:1031300080220895882309F41AC18238C1F40E94BC
:10314000401781FD14C169E3809117019091180126
:103150000E94D7240E940D232FEF81EE94E021508E
:1031600080409040E1F700C0000069E319C0833857
:10317000F9F40E94401780FDFAC063E580911701C1
:10318000909118010E94D7240E940D232FEF81EE09
:1031900094E0215080409040E1F700C0000063E5DA
:1031A00080911701909118010E94E2240C940D2344
:1031B0008438C1F40E94401782FDD9C067E4809131
:1031C0001701909118010E94D7240E940D232FEF20
:1031D00081EE94E0215080409040E1F700C0000073
:1031E00067E4DECF9CEF980F913A40F4682F80910E
:1031F0001701909118010E94D724D8CF90E2980F20
:10320000983050F4877091E001C0990F8A95EAF7E1
:10321000892F0E94C222CACF9BE5980F933070F489
:10322000853A29F0863A31F083E890E005C081E8DC
:1032300090E002C082E890E00C94741798E5980F33
:10324000973108F08EC0883A09F445C0893A09F4EC
:1032500045C08A3A09F445C08B3A09F445C08C3A16
:1032600009F445C08B3B09F445C08C3B09F445C0CB
:103270008D3A09F445C0803B09F445C08E3A09F403
:1032800045C08F3A09F445C0813B09F445C0823BF3
:1032900009F445C0833B09F445C0843B09F445C0AB
:1032A000853B09F445C0863B09F445C0873B09F4DA
:1032B00045C0883B09F445C0893B09F445C08D3BB6
:1032C00009F445C08E3B09F445C08A3B09F445C06A
:1032D00080E090E044C082EE90E041C089EE90E052
:1032E0003EC08AEE90E03BC085EB90E038C086EBB4
:1032F00090E035C083EB90E032C084EB90E02FC0CB
:1033000087EB90E02CC08CEC90E029C08DEC90E035
:1033100026C083E891E023C08AE891E020C082E9DA
:1033200091E01DC084E991E01AC081E292E017C0EB
:1033300083E292E014C084E292E011C085E292E060
:103340000EC086E292E00BC087E292E008C08FE6F2
:1033500090E005C080E790E002C08AE292E00C9421
:103360008A17803F20F00E9414280C9401290895A8
:10337000882309F464C0823879F40E94401781FFE1
:103380005EC069E380911701909118010E94D724D3
:103390000E940D2369E310C08338B1F40E944017E6
:1033A00080FF4DC063E580911701909118010E9444
:1033B000D7240E940D2363E5809117019091180195
:1033C0000E94E2240C940D23843879F40E94401763
:1033D00082FF35C067E480911701909118010E9427
:1033E000D7240E940D2367E4E7CF9CEF980F913A12
:1033F00010F4682FE1CF90E2980F983050F4877066
:1034000091E001C0990F8A95EAF7892F0E94C8229E
:10341000D9CF9BE5980F933020F480E090E00C9496
:10342000741798E5980F973120F480E090E00C94A1
:103430008A17803F20F00E947C280C94012908956F
:10344000CF93C82F0E949A18C93349F42FEF87EE03
:1034500093E0215080409040E1F700C000008C2FA5
:10346000CF910C94B819882321F00E94C2220C94A9
:103470000D230895882321F00E94C8220C940D2367
:103480000895CF92DF92EF92FF920F931F93CF9305
:10349000DF937C01062FC72FFC01158112951F7049
:1034A000D281D1110E94DF220E94B822882379F0B4
:1034B000DD2369F080E2800F883048F082E00E94CE
:1034C00057230E94B82291E0D82ED92601C0D12CD2
:1034D000CC2EC2948FE0C8228C2D90E0FC01E659DE
:1034E000FF4F0C941C318C2F807FCF70882311F0FC
:1034F000C295C07FDD2399F0CC2309F4C4C180E2DA
:10350000800F883010F0011104C08C2F0E94C2225D
:1035100003C08C2F0E94D2220E940D23B4C1802FA1
:103520000E94B819CC2309F4D3C180E2800F8830FF
:1035300010F0011104C08C2F0E94C82203C08C2FF0
:103540000E94D8220E940D23C3C18C2F807FCF7090
:10355000803211F0C295C07F002319F00130C9F00C
:1035600022C0DD2371F0112341F0113031F40E94AB
:10357000F2228C2B0E94FA22ABC10E94F2228C2BE9
:103580001DC0112319F0113009F4A2C10E940323B8
:1035900025C0DD2321F0163008F09AC10EC0153089
:1035A00008F096C11BC0DD2361F0112331F0F70153
:1035B000858180FF68C18F7085838C2F0E94331AAC
:1035C00087C1112359F0093309F06EC1FFEF27EECF
:1035D00083E0F15020408040E1F764C18C2F0E94CD
:1035E0003A1A76C18C2F86958695837019F08130B2
:1035F00061F06EC1DD2321F0802F9C2F937002C0FB
:1036000080E090E00E9474176BC1DD2321F0802FD1
:103610009C2F937002C080E090E00E948A1760C1E6
:10362000DD23F9F0053F51F0063F71F0043FA9F4A6
:103630008091AE049091AF0481600BC08091AE0484
:103640009091AF04826005C08091AE049091AF0468
:1036500084609093AF048093AE04802F0E9414285E
:103660001EC0053F51F0063F71F0043FA9F4809160
:10367000AE049091AF048E7F0BC08091AE04909108
:10368000AF048D7F05C08091AE049091AF048B7F15
:103690009093AF048093AE04802F0E947C280E94F8
:1036A00001291EC18C2F837009F045C0D11114C1AE
:1036B000402F429546954770440F440F602F6F701E
:1036C000862F90E0A0E0B0E0042E04C0880F991F80
:1036D000AA1FBB1F0A94D2F704FF10C00FE010E02E
:1036E00020E030E004C0000F111F221F331F4A9555
:1036F000D2F7009510952095309503C000E010E0BA
:103700009801C695C695C370BC01CD01602B712B85
:10371000822B932BC23049F058F4C13019F00E942B
:10372000FD20DAC00E94EB20D7C00E940F21D4C038
:103730000E94E920D1C0DD2319F08C2F817001C0D7
:103740008695882309F4C8C0402F42954695477056
:10375000440F440F602F6F70862F90E0A0E0B0E020
:10376000042E04C0880F991FAA1FBB1F0A94D2F70A
:1037700004FF10C00FE010E020E030E004C0000FB4
:10378000111F221F331F4A95D2F7009510952095DF
:10379000309503C000E010E09801C695C695C3704F
:1037A000BC01CD01602B712B822B932BC23049F0D1
:1037B00058F4C13019F00E94C2218EC00E94B0217D
:1037C0008BC00E94D42188C00E94232185C0CF7065
:1037D000DD2339F08C2F0E944921802F0E94331A5B
:1037E0007BC0802F0E943A1A8C2F0E946A2174C0DD
:1037F000023F01F128F4003F41F0013FA1F03FC03A
:10380000033FF9F0043F39F13AC0DD2341F01530B0
:1038100008F05EC08C2F8F710E948F2159C0163026
:1038200008F056C0F7CFDD2339F08C2F8F710E943E
:1038300049214EC0DD23C9F38C2F8F710E946A216C
:1038400047C0DD2329F08C2F8F710E94342140C0A6
:103850000E942F213DC0DD2349F0CF718C2F0E94A3
:10386000492163E08C2F0E94422332C081E00E94F4
:103870005723123068F182E00E94572329C0DD23CC
:1038800031F0112391F2802F0E949A1821C0112348
:1038900099F2093349F49FEFE7EEF3E09150E040ED
:1038A000F040E1F700C00000802F0E94B81910C05E
:1038B0004C2F4F70602FC7010E9400070E945A20B2
:1038C0000FC04C2F4F70602FC7010E94030708C024
:1038D00088EF8C0D843020F40E9440170E947D06F2
:1038E000DD20C9F00E94B42280FD15C0F7011282CC
:1038F0000E94AE220E944921C7010E94941C0E948E
:10390000AE22DF91CF911F910F91FF90EF90DF904A
:10391000CF900C946A21DF91CF911F910F91FF906E
:10392000EF90DF90CF9008950F931F93CF93DF9385
:10393000EC01988189812B813C81232B31F08F3FD1
:1039400031F481E09F3F19F403C081E001C080E0C1
:1039500080FD13C0CE010E949606882371F0688115
:1039600079818A810E948B228C010E94E6210E942B
:10397000D720B801CE010E94411ADF91CF911F914B
:103980000F9108950E94DF220E94EF220E940D23D2
:103990000E94A7290E94012980E090E00E947417EC
:1039A00080E090E00C948A178091170190911801A3
:1039B0000E94ED240C94C21C0E94CF220C94D41CB3
:1039C000E92FE295EF704E2F50E0FA013297EE307A
:1039D000F105B0F4E658FF4F0C941C31803F91F094
:1039E00018F4883E68F40EC0843F51F40BC0883E42
:1039F00048F0813F29F406C093FB882780F9089599
:103A000080E0089581E008950E9480220E94E01CD9
:103A10000895CF93DF9300D000D01F92CDB7DEB7CB
:103A20000F900F900F900F900F90DF91CF9108950E
:103A3000CF93DF9300D000D000D0CDB7DEB726966D
:103A40000FB6F894DEBF0FBECDBFDF91CF910895C2
:103A50001F93CF93DF93C091C70116E08091C801F7
:103A6000C81799F0D0E01C9FF0011D9FF00D1124A4
:103A7000E753FE4F4081518162817381848195813A
:103A80000E94181D2196C770E9CFDF91CF911F9139
:103A900008954091F9015091FA016091FB017091F4
:103AA000FC018091FD019091FE010C94181DCF93B3
:103AB0008091FE0182958F7009F05FC08091FB01BB
:103AC000882309F45AC08091C701B091C801709150
:103AD000F901A091FA014091FC015091FD0191E0A2
:103AE0007F3F09F090E0692FC6E08B1709F445C0CD
:103AF0004115510521F0AF3F21F020E003C021E046
:103B000001C0262F90E020FD35C0C89FF001C99F5D
:103B1000F00D1124E753FE4F21812A132BC0208181
:103B2000271328C02281211125C023813481241725
:103B3000350710F421503109241B350B283C310581
:103B4000C8F42091FE012F7020612093FE0126E031
:103B5000289FF001299FF00D1124E253FE4F808130
:103B60008F708061808389EF91E00E94941CCF91D7
:103B70000C94281D01968770B8CFCF910895AF920D
:103B8000BF92CF92DF92EF92FF920F931F93CF934A
:103B9000DF93CDB7DEB761970FB6F894DEBF0FBEE7
:103BA000CDBF8C0185E0F801DE011D9601900D92DC
:103BB0008A95E1F7D8014C9111965C911197129674
:103BC000EC903091F9016091FA018091FC019091A3
:103BD000FD01009731F06F3F31F421E03F3F19F4D0
:103BE00003C021E001C020E0B22FB170BB2E20FD48
:103BF00060C1F801C380D480A090FB01AA2009F421
:103C0000EEC02091FE01C816D90628F0D601A81BE7
:103C1000B90BCD0104C0809590958C0D9D1DFF249E
:103C2000F394883C910580F0F12C207F09F09CC032
:103C30007C2DD98AC88A6E2D89890E94091D89EF39
:103C400091E00E94941C2DC1822F807F09F054C006
:103C5000561314C0431312C0FE2CE1100FC02F7076
:103C600020612093FE010E94491D89EF91E00E948E
:103C7000941C8091FE01F80185835CC1CD2831F050
:103C80005F3F31F481E04F3F19F403C081E001C090
:103C900080E080FD03C081E08E2502C080E090E0DE
:103CA000F82FF170FF2E80FF1CC08091C70120917A
:103CB000C80136E0821709F41AC190E0389FF0017C
:103CC000399FF00D1124E753FE4F6181561306C052
:103CD0006081461303C06281E61203C001968770BB
:103CE000E9CFFE2CEE2009F425C18091FE01816010
:103CF0008093FE01F12C1EC1561309C0431307C067
:103D0000E11005C08091FE01F8018583A4C04D87B4
:103D10005E878D859E850E94041D882379F1EE20A3
:103D200069F12091FE01822F82958F7090E00297B9
:103D300074F08091F9019091FA0198878F83198628
:103D4000DB86CA862C87CE0107960E94941C86E0EB
:103D5000F801A9EFB1E001900D928A95E1F70E9478
:103D6000571D0E94491D0DC0561771F04D875E8783
:103D70008D859E850E94041D81111AC0C8010E9474
:103D8000941CFF24F394D6C04313F0CFE110EECF80
:103D90008091FE01F8018583C8010E94941C86E091
:103DA000E9EFF1E0DF011D928A95E9F7FA2CC2C034
:103DB000EE2021F32091FE01822F82958F7090E0FA
:103DC00002972CF28091F9019091FA019A838983EC
:103DD0001B82DD82CC822E83CE010196B6CFC8161F
:103DE000D90628F0F601E81BF90BCF0104C0809535
:103DF00090958C0D9D1D883C910548F0F12C7C2DF3
:103E0000D98AC88A6E2D89890E94091D4AC0FE2C54
:103E1000EE2009F4B3CF561333C0431331C02091C1
:103E2000FE0120FD24C0822F82958F70482F50E024
:103E300041155105E1F0D80115962C9315974F3097
:103E4000510549F08F5F982F9295907F822F8F7048
:103E5000892B15968C93C8010E94941C86E0F8016A
:103E6000A9EFB1E001900D928A95E1F73DC086E09F
:103E7000F801A9EFB1E001900D928A95E1F75AC0DF
:103E80004D875E878D859E850E94041D81115FCFC1
:103E90008091FE0181608093FE01C8010E94941C04
:103EA00049C0E9EFF1E086E0DF011D928A95E9F76C
:103EB0001BC0EE2009F462CF4D875E878D859E85FD
:103EC0000E94041DF82E882309F458CF86E0F801DB
:103ED000A9EFB1E001900D928A95E1F789EF91E0A9
:103EE0000E9494180E94571D0E94491D23C04D87AF
:103EF0005E878D859E850E948022292F22952F70B6
:103F0000223028F49F7039F0811105C00BC0243095
:103F100028F49F7049F4805E883020F0C8010E9428
:103F2000941CBF2CFB2C06C0D80115969C91907F49
:103F300091F7F8CF8F2D61960FB6F894DEBF0FBEC4
:103F4000CDBFDF91CF911F910F91FF90EF90DF9048
:103F5000CF90BF90AF9008951F93CF93DF93CDB7CD
:103F6000DEB72C970FB6F894DEBF0FBECDBF4F83E0
:103F7000588769877A878B879C87CE0107960E942E
:103F8000BF1D8823D1F09F8188852A853B85232BFF
:103F900031F08F3F31F481E09F3F19F403C081E09D
:103FA00001C080E080FD47C04F81588569857A85D2
:103FB0008B859C850E94181D3EC086E0FE013796C9
:103FC000DE01119601900D928A95E1F7FF81E88557
:103FD0006A857B856115710531F0EF3F31F481E031
:103FE000FF3F19F403C081E001C080E080FD23C0E1
:103FF0002091C80130E0C90101968770992740914E
:10400000C70150E084179507F1F1F983EA837D83B6
:104010006C8396E0929FD001939FB00D1124A7531B
:10402000BE4FFE01319601900D929A95E1F7809373
:10403000C8010E94281D16E08091C7019091C80117
:10404000891771F1189FC001112487539E4F0E9458
:10405000BF1D882329F1E091C7011E9FF0011124A3
:10406000E753FE4F40815181628173818481958144
:104070000E94181D8091C70190E0019687709927D2
:104080008093C701D9CF0E94DC1C1092C801109206
:10409000C701E9EFF1E086E0DF011D928A95E9F7BB
:1040A0002C960FB6F894DEBF0FBECDBFDF91CF9137
:1040B0001F910895EF92FF920F931F93CF93DF9379
:1040C0008C01892B09F46CC0F12CEE24E394E801F7
:1040D0002196F8018491843740F4843008F051C06F
:1040E000813081F0823019F15BC0853709F444C01A
:1040F000A8F19CE7980F903708F052C08F770E9484
:10410000B81941C00E5F1F4FFE01849190E2980FD5
:10411000983050F48770FE2D01C0FF0F8A95EAF7A2
:104120008F2F0E94E22214C00E949A182DC00E5FA9
:104130001F4FFE01849190E2980F983060F48770D1
:10414000FE2D01C0FF0F8A95EAF78F2F0E94E8220B
:104150000E940D2319C00E94B81916C00E5F1F4F90
:10416000FE01C491CC2381F08FE99FE00197F1F724
:1041700000C00000C150F6CF0E5F1F4FFE01F4904B
:1041800003C00E949A188E018F2D882309F49FCFB7
:10419000EFE9FFE03197F1F700C000008150F5CF63
:1041A000DF91CF911F910F91FF90EF9008950895A7
:1041B00008950C94D8200C94D9200E94DB206093A1
:1041C00021027093220280932302909324020C9484
:1041D000C21C0C94DD200F931F93009121021091BB
:1041E00022022091230230912402602B712B822B1A
:1041F000932B1F910F910C94DD200F931F9300912F
:104200002102109122022091230230912402602386
:104210007123822393231F910F910C94DD200F9320
:104220001F930091210210912202209123023091CC
:10423000240260277127822793271F910F910C94E6
:10424000DD200C94D8200E94212160931D027093E0
:104250001E0280931F02909320020C94C21C60E007
:1042600070E0CB010C9423210F931F9341E050E0A9
:1042700060E070E08A019B0104C0000F111F221F43
:10428000331F8A95D2F7C901B8011F910F910C9481
:1042900023210F931F9341E050E060E070E004C0E1
:1042A000440F551F661F771F8A95D2F780911D0214
:1042B00090911E02A0911F02B09120028A019B01E1
:1042C000082B192B2A2B3B2BC901B8011F910F91E9
:1042D0000C9423210F931F9341E050E060E070E0C5
:1042E00004C0440F551F661F771F8A95D2F740956B
:1042F00050956095709580911D0290911E02A0913D
:104300001F02B09120028A019B01082319232A234E
:104310003B23C901B8011F910F910C9423210F93E6
:104320001F9341E050E060E070E004C0440F551F6F
:10433000661F771F8A95D2F780911D0290911E0209
:10434000A0911F02B09120028A019B010827192722
:104350002A273B27C901B8011F910F910C942321F3
:104360000F931F9300911D0210911E0220911F02B6
:1043700030912002602B712B822B932B1F910F9178
:104380000C9423210F931F9300911D0210911E0284
:1043900020911F02309120026023712382239323F6
:1043A0001F910F910C9423210F931F9300911D02D5
:1043B00010911E0220911F02309120026027712768
:1043C000822793271F910F910C942321089527E0B2
:1043D000929F800D1124E82FE695E695E69587706B
:1043E00051E001C0550F8A95EAF785E0E89FF0019A
:1043F0001124E150FE4F20E030E070E04081CB011D
:10440000022E02C0969587950A94E2F781708195F5
:1044100084278523842781932F5F3F4F25303105E3
:1044200069F7089527E0929F800D1124682F669503
:1044300066956695982F977085E0689FB001112466
:1044400040E050E080E0FB01E40FF51FE150FE4F3B
:10445000208130E0092E02C0369527950A94E2F7B4
:1044600021703327042E01C0220F0A94EAF7822B11
:104470004F5F5F4F4530510531F70895BF92CF929E
:10448000DF92EF92FF920F931F93CF93DF938C01F4
:10449000C0901D02D0901E02E0901F02F0902002FA
:1044A0008091210290912202A0912302B0912402D6
:1044B000C82AD92AEA2AFB2ACFE1D0E0D701C601CF
:1044C0000C2E04C0B695A795979587950A94D2F7B8
:1044D00080FD04C0219790F7B12C07C0BC2EB80115
:1044E0008C2F0E941F070197A9F38B2DDF91CF918D
:1044F0001F910F91FF90EF90DF90CF90BF900895A4
:10450000CF93DF93EC010E943E22BE010E941F0761
:10451000DF91CF9108951F93CF93DF93EB0190919B
:10452000C601992321F0CB010E94802213C0882369
:1045300049F0CB010E943E22182F682FCE010E9425
:10454000E72104C0CB010E941222182FBE01812F47
:104550000E941F07DF91CF911F910895809125023E
:104560008595859585950895809125028770089594
:1045700090912502977081E009F480E00895809180
:104580004902089590914902892B80934902089528
:104590008095909149028923809349020895109251
:1045A0004902089590914802892B8093480208950A
:1045B0008095909148028923809348020895109233
:1045C0004802089590914702892B809347020895ED
:1045D0008095909147028923809347020895109215
:1045E0004702089580912602089508950C94F522BB
:1045F0000C94F62290912602981721F080932602BF
:104600000C94F822089580912602882329F01092B4
:10461000260280E00C94F8220895E0911701F091B1
:104620001801809149028083E0911701F0911801EF
:10463000908180914802892B8083E0911701F0914D
:104640001801908180914702892B808380912602F6
:10465000882381F0E0911701F09118019081892B56
:10466000808380911701909118010E94712481111B
:104670000E94032380911701909118010C944C170C
:104680000C94F52298E0899F90011124262B209309
:1046900025020E9449218091250285958595859561
:1046A0000C9440231092250280E00C94402320912A
:1046B00025028095822380932502982F977079F4A4
:1046C00030E0482F082E000C550B2417350739F021
:1046D0008595859585950E946A210C9452230895AD
:1046E000CF92DF92EF92FF926C01EE24FF24C1146F
:1046F000D104E104F10421F0C701B60120E101C0B9
:1047000020E0C72ED82EE92EFF24C114D104E104E5
:10471000F10419F0285FC701B6016B017C0154E078
:10472000F694E794D794C7945A95D1F7C114D1045D
:10473000E104F10419F02C5FC701B6016B017C01A3
:1047400042E0F694E794D794C7944A95D1F7C11400
:10475000D104E104F10419F02E5FC701B601DC01B8
:10476000CB01B695A79597958795892B8A2B8B2B8F
:1047700009F02F5F822FFF90EF90DF90CF90089588
:1047800080E090E00E94533121E08C3E9E4F09F082
:1047900020E0822F089582E090E00C944531682F4C
:1047A00082E090E00C94593183E090E00C94453124
:1047B000682F83E090E00C945931CF9384E090E02F
:1047C0000E944531C82F81E290E00E9445312C2F94
:1047D00030E0A901582BCA01CF910895CF93C92F7A
:1047E000682F84E090E00E9459316C2F81E290E0C4
:1047F000CF910C945931AB01BC018FE090E00C9447
:104800006B31AB01BC0183E190E00C946B3160E053
:1048100070E0CB010C94012460E070E0CB010E94B9
:10482000FB230C9407246CEE7EEF80E090E00E9466
:10483000773160E082E090E00E94593160E083E0EF
:1048400090E00E945931109221021092220210929F
:1048500023021092240260E084E090E00E9459312B
:1048600060E081E290E00E94593160E085E090E0F4
:104870000E94593160E086E090E00E9459316FEF6C
:1048800087E090E00E94593140E050E0BA0188E0B2
:1048900090E00E946B3160E08DE090E00E94593121
:1048A00040E050E0BA0188E190E00E946B3160E0A6
:1048B00087E190E00E94593140E050E0BA018CE17C
:1048C00090E00E946B3160E080E290E00E945931FC
:1048D0000C940C240C941324682F8EE090E00C941C
:1048E0005931FC01329680912901882331F0809161
:1048F000B40487FF02C09EE101C096E080E09150C1
:1049000028F021912223D9F38F5FF9CF08959C01DC
:10491000FC0132969FEF80E04191461789F09F3F5E
:1049200019F4411101C0982F8F5F8630A9F79F3F7E
:1049300039F0F901E90FF11D97FDFA9562830895A9
:1049400008959C012A5F3F4FFC014281461301C03C
:104950001282019682179307B9F70895262F26959C
:10496000269526952E3168F4FC01E20FF11D677043
:1049700021E030E001C0220F6A95EAF78281282BFE
:1049800022830895262F2695269526952E3170F49C
:10499000FC01E20FF11D677021E030E001C0220F41
:1049A0006A95EAF720958281282322830895209131
:1049B0002901222329F02091B40427FD0C94AE2470
:1049C0000C94872420912901222329F02091B404FA
:1049D00027FD0C94C2240C94A12420912901FC01F0
:1049E0003296222331F08091B40487FF02C08EE119
:1049F00001C086E0DF011D928A95E9F708950895C8
:104A00000C94FF240C94FF24CF930E9402250E9453
:104A1000100A0E940025C0E08C2F0E94B00981116D
:104A200004C0CF5FC630C1F701C081E0CF910895C7
:104A30000C94FF240C9418250E941A258091BA0426
:104A4000843049F110924B0220E488E190E00FB6E7
:104A5000F894A895809360000FBE2093600080E0DA
:104A60000E947D060E941A2583B7817F846083BFE0
:104A700083B7816083BF7894889583B78E7F83BF27
:104A80000FB6F894A89580916000886180936000CB
:104A9000109260000FBE08950C94FF240E94DC1C4D
:104AA0000E9440170E947D060C944C251F920F9285
:104AB0000FB60F9211248F939F93AF93BF93809162
:104AC0004B02811113C08091B0049091B104A09168
:104AD000B204B091B3044196A11DB11D8093B004FE
:104AE0009093B104A093B204B093B304BF91AF917B
:104AF0009F918F910F900FBE0F901F90189582E09D
:104B000084BD93E095BD9AEF97BD80936E000895A4
:104B10002FB7F8948091B0049091B104A091B204A1
:104B2000B091B3042FBF08952FB7F8946091B004EB
:104B30007091B1048091B2049091B3042FBF089595
:104B4000CF92DF92EF92FF920F931F932FB7F894BB
:104B50004091B0045091B1046091B2047091B304DB
:104B60002FBF6A017B01EE24FF248C0120E030E09E
:104B7000C016D106E206F30610F4415051099A011D
:104B8000281B390BC9011F910F91FF90EF90DF9007
:104B9000CF90089578941F920F920FB60F92112420
:104BA0008F939F93AF93BF938091B0049091B10482
:104BB000A091B204B091B3040196A11DB11D8093E0
:104BC000B0049093B104A093B204B093B304BF9126
:104BD000AF919F918F910F900FBE0F901F901895DE
:104BE00081E08093E00080E28093D8001092C900B9
:104BF0008FE19EE40197F1F700C0000087E090EBA1
:104C0000DC018093C3049093C404A093C504B093C3
:104C1000C6049CE088E10FB6F894A89580936000E4
:104C20000FBE90936000FFCFCF92DF92EF92FF9282
:104C30000F931F93CF93C0E0E82EF12C8C2F0E948E
:104C4000B00900E010E0C82ED12CC601002E02C031
:104C5000959587950A94E2F780FD06C00F5F1F4F78
:104C60000730110591F70AC0602F7C2F80E00E9469
:104C70000407E816F90691F781E004C0CF5FC6305B
:104C8000E9F680E0CF911F910F91FF90EF90DF90B8
:104C9000CF900895CF93C82F8CE20E9414268823CA
:104CA00021F08C2FCF910C94142680E0CF910895A1
:104CB000CF930E94C023811102C00E946A24C5E6DE
:104CC000C15049F00E94100A8FE39CE90197F1F767
:104CD00000C00000F5CF89E20E944A26811120C160
:104CE0008AE20E944A2681110E946A2485E00E947D
:104CF0004A2681110E94F0250E94CB2380934A020C
:104D000087E00E944A268823A9F18BE10E944A2667
:104D1000882351F080914A0281FB222720F991E0FB
:104D2000922790FB81F90EC08EE00E944A268823CC
:104D300061F080914A0282FB222720F991E09227BC
:104D400090FB82F980934A0215C080E10E944A26B6
:104D500090914A02882341F093FB222720F981E0B9
:104D6000822780FB93F904C0892F809580FB90F9FE
:104D700090934A0280914A020E94CF230E94DD2331
:104D80009093B5048093B40480EE0E944A26882351
:104D900041F08091B404982F909590FB80F9809316
:104DA000B40489E30E944A26882359F08091B40410
:104DB00081FB222720F991E0922790FB81F98093D3
:104DC000B40482EE0E944A26882359F08091B404EC
:104DD00082FB222720F991E0922790FB82F98093B1
:104DE000B40486EE0E944A26882359F08091B404C8
:104DF00083FB222720F991E0922790FB83F980938F
:104E0000B40483EE0E944A26882359F08091B404AA
:104E100084FB222720F991E0922790FB84F980936C
:104E2000B40485E30E944A26882359F08091B40493
:104E300085FB222720F991E0922790FB85F980934A
:104E4000B40481E30E944A26882359F08091B40477
:104E500086FB222720F991E0922790FB86F9809328
:104E6000B40481E10E944A26882359F08091B40459
:104E700087FB222720F991E0922790FB87F9809306
:104E8000B4048091B4049091B5040E94EE2387E2AB
:104E90000E944A26C82F8EE10E944A268111C260D4
:104EA0008FE10E944A268111C46080E20E944A2656
:104EB0008111C86081E20E944A268111C06182E2AC
:104EC0000E944A268111C06283E20E944A26811113
:104ED000C06484E20E944A26882311F0C06802C0A0
:104EE000CC2329F08C2F0E94D8236C2F03C00E9462
:104EF000D423682F70E080E090E00E94E9208FE0EA
:104F00000E944A26882319F081E00E946C2485E1E2
:104F10000E944A26882321F080E0CF910C946C24D3
:104F2000CF91089580914F0280FF0BC060911C01CA
:104F300085E0689FB0011124759567957595679513
:104F40002BC081FF09C060911C0185E0689FB00102
:104F500011247595679520C082FF07C060911C01E0
:104F600085E0689FB001112417C090914E029923EB
:104F7000D1F060911B01961788F720911C0185E004
:104F8000289F90011124929FA001939F500D1124FE
:104F900070E0CA010E9408316038710540F4611563
:104FA000710519F406C065E070E0862F08958FE75B
:104FB000089581E0089580914F0280FF08C06091BC
:104FC0001A0170E0759567957595679521C081FF09
:104FD00006C060911A0170E07595679519C082FF4F
:104FE00004C060911A0170E010C090914E029923A4
:104FF00099F0609119019617A0F780911A01899F85
:10500000C001112470E00E9408316038710540F43D
:105010006115710519F406C061E070E0862F0895EE
:105020008FE7089581E00895803F21F40E94922740
:10503000819504C0813F29F40E94922780935302F6
:105040000895823F21F40E949227819504C0833FF6
:1050500029F40E949227809352020895893F19F4FF
:105060000E94DB2705C08A3F31F40E94DB2781952F
:105070008093540208958B3F21F40E94DB27819591
:1050800004C08C3F29F40E94DB27809355020895C9
:10509000843F21F480915102816017C0853F21F443
:1050A00080915102826011C0863F21F480915102AB
:1050B00084600BC0873F21F480915102886005C055
:1050C000883F31F4809151028061809351020895AC
:1050D0008D3F21F480914F0281600BC08E3F21F4FF
:1050E00080914F02826005C08F3F29F480914F026A
:1050F000846080934F020895803F39F48091530279
:1051000087FF6CC01092530269C0813F29F48091DF
:1051100053021816BCF362C090915202823F29F4E8
:1051200097FF5CC01092520259C0833F19F41916C0
:10513000CCF354C0893F41F48091540218160CF00E
:105140004DC0109254024AC08A3F29F48091540203
:1051500087FF44C0F6CF8B3F39F48091550287FF1B
:105160003DC0109255023AC08C3F29F480915502FF
:105170001816BCF333C0843F21F4809151028E7F16
:1051800017C0853F21F4809151028D7F11C0863F69
:1051900021F4809151028B7F0BC0873F21F48091D5
:1051A0005102877F05C0883F31F4809151028F7E84
:1051B0008093510213C08D3F21F480914F028E7F66
:1051C0000BC08E3F21F480914F028D7F05C08F3F31
:1051D00029F480914F028B7F80934F02809152027D
:1051E00081110EC08091530281110AC08091540236
:1051F000811106C080915502811102C010924E02A9
:10520000089580E592E00E9466170E948825909399
:105210004D0280934C0208951F93CF93DF938091AA
:105220004C0290914D020E94A025AC0190914E023B
:10523000992321F020911D0130E006C020911E012C
:105240008AE0289F900111244217530708F47BC07D
:1052500080915202C0915302D09154021091550294
:10526000811107C0C1116BC0D11169C0111167C094
:105270006AC09F3F19F09F5F90934E02181624F466
:105280000E949227809352028091520287FF05C0AC
:105290000E9492278195809352021C1624F40E944A
:1052A0009227809353028091530287FF05C00E948A
:1052B0009227819580935302309152023323E1F07B
:1052C000209153022223C1F045EB3403C001112485
:1052D000992319F09093520203C081E08093520207
:1052E00035EB2303C0011124992319F09093530245
:1052F00003C081E0809353021D1624F40E94DB2733
:10530000809354028091540287FF05C00E94DB27DE
:10531000819580935402111624F40E94DB27809318
:1053200055028091550287FF05C00E94DB278195B9
:1053300080935502DF91CF911F910C9401299F3FDB
:1053400009F099CFAACFDF91CF911F910895E0E5A1
:10535000F2E086E0DF011D928A95E9F710924E0295
:1053600010924F0208958091760208950F931F9333
:10537000CF93DF9300D01F92CDB7DEB78C010E9490
:105380001F2C823011F0843021F584E089831B8347
:105390000A8382E08093E9008FEF9091E8008150CA
:1053A00095FD06C095ED9A95F1F700008111F5CFB6
:1053B0008091E80085FF0DC040E050E063E070E0C0
:1053C000CE0101960E943C2C8091E8008E7780935C
:1053D000E8000F900F900F90DF91CF911F910F91E8
:1053E0000895CF93DF9300D01F92CDB7DEB7209101
:1053F000BA04243031F523E02983805891099B8336
:105400008A8382E08093E9008FEF9091E8008150D9
:1054100095FD06C095ED9A95F1F700008111F5CF45
:105420008091E80085FF0DC040E050E063E070E04F
:10543000CE0101960E943C2C8091E8008E778093EB
:10544000E8000F900F900F90DF91CF910895CF93C8
:10545000DF93EC010E941F2C823011F08430F9F4AC
:1054600082E08093E9008FEF9091E800815095FDF4
:1054700006C095ED9A95F1F700008111F5CF809166
:10548000E80085FF0CC040E050E066E070E0CE012F
:105490000E943C2C8091E8008E778093E800DF9199
:1054A000CF910895CF93DF93EC010E941F2C82309F
:1054B00011F08430D9F580912901882339F0809149
:1054C000B40487FF03C060E282E002C068E081E0CC
:1054D0008093E9008FEF9091E800815095FD06C020
:1054E00095ED9A95F1F700008111F5CF8091E800D4
:1054F00085FF1CC080912901811105C040E050E06A
:1055000068E070E003C070E040E050E0CE010E942F
:105510003C2C8091E8008E778093E80080E2FE01C9
:10552000A6E5B2E001900D928A95E1F7DF91CF9167
:1055300008958091B904811109C00E94CD2D0E9467
:105540002A2E8091E20084608093E20008951092F8
:10555000B9040895089508950C944E2542E061EC35
:1055600081E00E94462D42E261EC82E00C94462DDF
:105570008091BC04833009F460C030F4813071F054
:10558000823009F499C008958A3009F485C08B30BF
:1055900009F46BC0893009F0A7C020C08091BB041A
:1055A000813A09F0A1C08091E800877F8093E800EC
:1055B0008091BF049091C004892B21F460E286E5BC
:1055C00092E003C060E080E090E070E00E94872CF1
:1055D0008091E8008B778093E80008958091BB0468
:1055E000813209F081C08091BF049091C00402977C
:1055F00008F07AC08091E800877F8093E80080916E
:10560000E80082FD05C08091BA048111F8CF6CC01A
:105610002091F3008091F20090E0922B029729F400
:105620008091F1008B7F813021F48091F100809393
:1056300076028091E8008B7753C08091BB04813A59
:1056400009F052C08091BF049091C004892B09F0E9
:105650004BC08091E800877F8093E8008091E8004C
:1056600080FFFCCF8091290136C08091BB0481323C
:10567000D9F58091BF049091C004892BA9F5809140
:10568000E800877F8093E8000E947B2D8091BD0415
:10569000809329010C94DC1C8091BB04813221F59C
:1056A0008091E800877F8093E8000E947B2D8091A5
:1056B000BE048093770208958091BB04813AA1F4DF
:1056C0008091E800877F8093E8008091E80080FF68
:1056D000FCCF809177028093F1008091E8008E7773
:1056E0008093E8000C947B2D089584B7877F84BF56
:1056F0000FB6F894A895809160008861809360004F
:10570000109260000FBE90E080E80FB6F89480938E
:105710006100909361000FBE0E94B0170E94CD2DD2
:105720000E942A2E8091E20084608093E2007894A7
:105730000E94BF300E94B8178FE191E00E943B1792
:105740008091BA04853069F40E941C258091B804C8
:105750008823B1F30E940425882391F30E94262C0C
:10576000EFCF0E94C5170E94E50FEACF0C94B82B2B
:10577000292F332723303105C9F060F4213031055A
:1057800081F02230310509F04AC08BE390E025ED2D
:1057900039E049C02132310511F12232310579F168
:1057A0003EC082E190E020E13AE03DC0992781309F
:1057B000910561F040F08230910559F0039779F539
:1057C000EFE9F9E008C0E1EDF9E005C0EBEBF9E045
:1057D00002C0E5EAF9E0849190E09F0124C06115E0
:1057E000710541F061307105D1F489E090E020E06D
:1057F0003AE019C089E090E027EE39E014C0611565
:10580000710541F06130710551F480EC90E022E2C5
:105810003AE009C080E490E022EE3AE004C080E083
:1058200090E020E030E0FA013183208308958091F8
:10583000BA04843011F081E0089582E008958091E7
:105840007802811102C00C94172C089580E189BD63
:1058500082E189BD09B400FEFDCF8091D8008F7D23
:105860008093D8008091E00082608093E000809176
:10587000E00081FDFCCF0895CF92DF92EF92FF927E
:105880000F931F93CF93DF93EC018B017A010E945A
:105890009A2D811133C0E114F10439F0F7018081B0
:1058A0009181081B190BC80FD91FC12CD12C0115D0
:1058B000110519F18091E80085FD16C08091E8007E
:1058C0008E778093E800E114F10449F0F7018081BC
:1058D0009181C80ED91ED182C08285E00FC00E947E
:1058E0009A2D882321F30AC089918093F1000150F9
:1058F0001109FFEFCF1ADF0ADACF80E0DF91CF91F5
:105900001F910F91FF90EF90DF90CF90089520911D
:10591000C1043091C2042617370748F0611571059C
:1059200039F42091E8002E772093E80001C0B901F6
:10593000FC0120E06115710579F18091BA0488239A
:10594000F1F18530F1F18091E80083FD3CC0809158
:10595000E80082FD2EC08091E80080FFEBCF20910F
:10596000F3008091F20090E0922B6115710551F0E7
:105970008830910538F421912093F100615071092C
:105980000196F3CF21E0089709F020E08091E8002C
:105990008E778093E800CECF2111CFCF0AC08091BF
:1059A000BA04882361F0853061F08091E80083FDBE
:1059B0000AC08091E80082FFF2CF80E0089582E083
:1059C000089583E0089581E008952091C104309105
:1059D000C2042617370748F06115710539F4209184
:1059E000E8002E772093E80001C0B901FC0120E017
:1059F0006115710591F18091BA04882309F440C0C2
:105A0000853009F43FC08091E80083FD3DC080915E
:105A1000E80082FD2FC08091E80080FFE9CF20914F
:105A2000F3008091F20090E0922B6115710559F01E
:105A30008830910540F424912093F1003196615013
:105A400071090196F2CF21E0089709F020E08091DA
:105A5000E8008E778093E800CBCF2111CCCF0AC02D
:105A60008091BA04882361F0853061F08091E8006C
:105A700083FD0AC08091E80082FFF2CF80E00895A4
:105A800082E0089583E0089581E00895982F97308B
:105A900068F59093E900981739F07091EC00209127
:105AA000ED005091F00003C0242F762F50E021FD2F
:105AB00002C09F5FECCF3091EB003E7F3093EB0054
:105AC0003091ED003D7F3093ED003091EB0031607F
:105AD0003093EB007093EC002093ED005093F000B6
